:020000040000FA
:1000000008020020D5000000EF000000C30100003E
:1000100000000000000000000000000000000000E0
:10002000000000000000000000000000F3000000DD
:100030000000000000000000F50000003502000094
:10004000FF010000070200000F020000170200007D
:10005000F900000097010000F9000000F90000001D
:10006000E7010000EF0100001F020000F90000009E
:10007000D3010000F9000000F9000000AF0100000A
:10008000F9000000F9000000F9000000F90000008C
:10009000F9000000F9000000DB010000F900000099
:1000A0008F010000F9000000F9000000F9000000D5
:1000B000F7010000F9000000A70100009F01000007
:1000C0000348854600F044F80048004781010000DD
:1000D0000802002009480A4A002100A1814200D9F3
:1000E0000244084802600848804708480047FEE785
:1000F000FEE7FEE7FEE7FEE7FEE700000000002067
:100100000000000008ED00E04D020000C10000000A
:1001100070B50446002903D000202022012310E0FE
:10012000002801D00020C043C046C0460DE025464F
:10013000D5408D4205D30D469540641B1D46954024
:1001400040191546521E002DF1DC214670BD0000FD
:100150001CB5094800900948019005460126009CFD
:1001600005E0E36807CC33430C3C98471034AC42BD
:10017000F7D3FFF7A9FF0000740300009403000009
:1001800080B500F063F800F0E5F8002080BD80B590
:10019000C046C04680BD80B5C046C04680BD80B563
:1001A000C046C04680BD80B5C046C04680BD80B553
:1001B000C046C046C046C046C046C046C046C0460F
:1001C00080BD81B00020009000980028FCD001B0D4
:1001D000704780B5C046C04680BD80B5C046C046A9
:1001E000C046C04680BD80B5C046C04680BD80B513
:1001F000C046C04680BD80B5C046C04680BD80B503
:10020000C046C04680BD80B5C046C04680BD80B5F2
:10021000C046C04680BD80B5C046C04680BD80B5E2
:10022000C046C04680BD000080B500F035F83A48B1
:10023000006880BD80B5C046C04680BD80B5FFF770
:10024000F3FF0149086080BD0000002010B50E4991
:100250004888334A02400D4883680D4C1C40A21860
:10026000826009882F4A0A4001680A4B0B4099189E
:1002700001600F21490202688A4305214902511891
:100280000160FFF7DBFF10BDF20D100010200040F1
:1002900000FCFFFF00FEFFFFB0B51D48818800880D
:1002A0001C4CA268920602D51B4A1C4B13602268A4
:1002B00007231340022B0BD1A269194B13408B4229
:1002C00002D04B21490201E00121C903124A116009
:1002D0002168490702D01048006812E02169114ADC
:1002E0000A40824201D0114800E00F480A4D2860C0
:1002F0002169C9093C220A400DA18958FFF708FF6E
:10030000286021688906490FC84003490860B0BDCC
:10031000F00D100000200040040000200024F40034
:10032000FF030000FF010000800CA302006CDC0250
:1003300002000000040000000600000008000000A9
:100340000A0000000C0000000E0000001000000079
:1003500001000000FEE702E008C8121F08C1002AE1
:10036000FAD170477047002001E001C1121F002A36
:10037000FBD1704798030000000000200800000037
:1003800056030000A0030000080000200002000047
:10039000660300000000000000093D0000093D0068
:04000005000000C136
:00000001FF
