:020000040000FA
:1000000050030020D9000000F3000000B9110000E7
:1000100000000000000000000000000000000000E0
:10002000000000000000000000000000F7000000D9
:100030000000000000000000F9000000251500008D
:100040008D130000951300009D130000A513000000
:10005000FD00000061060000FD000000FD00000042
:10006000D9110000E1110000AD130000FD000000F7
:10007000C5110000FD000000FD0000008F0E000013
:10008000FD000000FD000000FD000000FD0000007C
:10009000FD000000FD000000CD110000FD0000008B
:1000A000CF050000FD000000FD000000FD00000085
:1000B00023130000FD000000A10C0000DD0B000078
:1000C0000448854600F040FA00480047AF050000AC
:1000D000C046C0465003002009480A4A002100A13A
:1000E000814200D902440848026008488047084815
:1000F0000047FEE7FEE7FEE7FEE7FEE7FEE700005B
:10010000000000200000000008ED00E03D150000A8
:10011000C100000030B50B4601460020202201241A
:1001200009E00D46D5409D4205D31D469540491B2B
:100130002546954040191546521E002DF1DC30BD74
:10014000D2B201E00270401C491EFBD2704700226F
:10015000F6E710B513460A4604461946FFF7F0FFC6
:10016000204610BDF8B502464A40D40F42004B006D
:1001700052085B089A4202D20246084611464A00DB
:1001800023D0C30D4A00DDB2120EAD1A202D35DA90
:1001900049020126490AF6058A19002C00D052426C
:1001A00020214F1B1146B9402A411018C20D9A4216
:1001B00021D0002C17D0012D08DCDA05801AD20FCF
:1001C0008019D207DBB200F027F9F8BDDA05801AF2
:1001D000012340001B06C01880185A428018CA0F1D
:1001E0001043490007E04908C2071143DA05801AA5
:1001F00080194008801800F007F9F8BD610001225D
:10020000511A001BF7E70122D2075140AAE7012249
:10021000D2075040A6E770B502464A40D50F4000CD
:100220004A00ED0740085208002814D0002A12D0D6
:10023000C40DD30D41020120C0055202490A520AE1
:10024000E41A091812187D34914201D3641C00E0AD
:100250004900002C01DA002070BD0023914201D337
:10026000891A0343400849000028F7D100290AD021
:10027000914202D10121C90705E0914201D2012139
:1002800001E00121C943E005C018401900F0BCF8A5
:1002900070BD0000F0B51FB488B00B990998002418
:1002A00048400999C00F490049080991C0070B99B6
:1002B0000090490049080B9109990898A6460843FF
:1002C0001CD00B990A98084318D0099801244000C3
:1002D000420D4800410D099824050003000B2043FE
:1002E00009900B980003000B20430B9050181C49F9
:1002F0004018002201901446104605E000200146F7
:100300000DB0F0BD032801DA034600E003239C464C
:10031000C11A0AAE0AE05F0008ADED5B4F00F75B63
:100320007D430027AA187C41491C5B1E6145F2DD14
:10033000410004AB5A522104120C0A43240C401C05
:100340000828DFDB01980290009970460191009027
:10035000059B049A0799069800F0A4F8D0E70000DE
:100360000DFCFFFF10B500229623114600F054F853
:1003700010BD00000EB505490291002100910A460A
:100380000B46019100F08EF803B000BD330400006D
:10039000410040020122400AD205090E80187F293F
:1003A00001DA00207047962903DC9622511AC840D2
:1003B000704796398840704710B5002904DB012446
:1003C000E40740428C412146002B04DB1C460123FC
:1003D000DB075242A3418B4200D1824210BD000094
:1003E00010B5002904DB0124E40740428C4121467A
:1003F000002B04DB1C460123DB075242A341994238
:1004000000D1904210BD0000002904DA401C4900D0
:1004100001D140084000704770B40024050C05D19C
:100420001024000402D1002921D01124050E01D18D
:1004300000020834050F01D10001241D850F01D1F0
:100440008000A41C002801DB4000641C002908D0A7
:1004500020252E1B0D46F540A14000D00121294347
:10046000084301061B1B000ADB1D02D5002070BCDF
:100470007047DB05181880180029F8DA401C49007D
:10048000F5D170BC40084000704710B5002B08DA69
:100490000024401C614192185B411A4301D140087D
:1004A000400010BDF0B51FB482B005460C0003D06B
:1004B000084601F033F902E001F030F9203002463D
:1004C00000902146284600F051F8049B059A044606
:1004D0000F4618431143084314D0184610431BD04D
:1004E000009840210A1A1846059900F04FF8054671
:1004F0000E46009A0599049800F038F8084305D094
:10050000012004E02046394607B0F0BD0020C117A5
:1005100005430E432C43374300990E986305401A58
:100520007905E40A00220C43FD0A0A3002D50020B6
:100530000146E9E70105101969410C9C0D9D001960
:100540006941FFF7A2FFDFE7064C0125064E05E0F3
:10055000E36807CC2B430C3C98471034B442F7D3E4
:10056000FFF7B2FDCC220000EC22000010B5202ADB
:1005700004DB0146203A9140002010BD9140202329
:100580009C1A0346E3401943904010BD10B5202A41
:1005900004DB0846203AD040002110BD0B46D34072
:1005A000D0402024A21A91400843194610BD10B52E
:1005B00000F0C4FF01F0DAFC002010BD8030816B38
:1005C00049084900816370478030006A704710B560
:1005D000C046C04610BD000070B500291DD08B6814
:1005E0000A6844681A434B680D4D2C4023431A4354
:1005F00001231A4342608268CB68120912011A4330
:1006000082608030C26B0969120912010A43C26319
:10061000012001F00FFA002070BD042070BD000021
:10062000E2C9FFFF8030006BC007C00F7047803009
:10063000016C0122114301647047000002494A69BC
:1006400082434A617047000000580040034909692D
:10065000884301D0002070470120704700580040B7
:1006600010B500F035F810BD014980B20860704740
:1006700000580040014980B248607047005800406F
:100680000248C16802151143C1607047005800401C
:1006900006C84368114302681A4311438268114334
:1006A000C2680069114301430348C268034B1A4002
:1006B0001143C160704700000058004081CCFFFF2B
:1006C0000248C16801221143C160704700580040D0
:1006D00010B50120FFF7BAFF012809D10548C178FC
:1006E000491CC1700A2001F087FD0120FFF7A6FF19
:1006F00010BD00007800002010B500F055F819205A
:1007000000F024F8FFF7DCFF10BD000010B586B044
:1007100014216846FFF71BFD0120000400F062FE73
:100720001C20009003200003019001204002029051
:100730000820054C039069462046FFF74DFF2046F0
:10074000FFF73CFF06B010BD0024004010B588B094
:1007500004461C216846FFF7FAFC0120C00200F0A5
:1007600041FE00214020039002200191009106905B
:100770000591049102916846FFF78AFF0120000469
:10078000041BA0B2FFF770FFA0B2FFF773FF0120B8
:10079000FFF754FFFFF774FF01220321052000F04B
:1007A00031FA08B010BD000010B58AB000240794DB
:1007B000142168460894FFF7CAFC012005900A48F6
:1007C000408A052149020843069005A800F07AFEF8
:1007D000072000900194029403940494684600F06A
:1007E00011FE0AB010BD0000E00D100000B589B088
:1007F00020216846FFF7ABFC082000F0F3FD002045
:1008000002900190402000901020039005204002AB
:10081000049000F0D7FD05904B20C001069069467A
:10082000024800F009FD09B000BD00000040004092
:100830007FB500200090019002900390114800F0D5
:10084000D1FD114C2020A0620221C5036A4623C2BB
:100850006946204600F0BEFA012001904020009039
:100860006946204600F0B6FA206B0F21090588433F
:1008700040192063206B0901884329014018206337
:100880007FBD000008000080000F024010B50B483B
:1008900000F0A8FD01200A4C4002E0604720A06063
:1008A0007F2060600720C0022060204600F0C2FE6A
:1008B00000F0CEFEA06800F0B5FE10BD0004008080
:1008C0006800002030B500231C461A4605E0855C10
:1008D0002C196B40521CE4B2D2B28A42F7D31802F0
:1008E000001930BD70B57F497D4B097858780129D2
:1008F00051D01D466035A97E02294CD1062803D06F
:10090000002204280FD000E001220021744E0A4387
:100910007B24A15D34467C34002A3DD0085DC007AD
:1009200003D0642102E00121F0E70021012001F061
:10093000F9FAE87E005D800701D5642100E000211E
:10094000022001F0EFFAE87E005D400701D5642146
:1009500000E00021032001F0E5FAE87E005D0007D9
:1009600001D5642100E00021042001F0DBFAE87EDB
:10097000005DC00601D5642100E00021052001F0E2
:10098000D1FAE87E005D800601D5642100E00021F7
:10099000062001F0C7FA70BD03280FD0012841D00E
:1009A0000228F8D118782028085D68D0C0076ED0DA
:1009B0006421012001F0B6FA642187E0085DC007D8
:1009C00005D06421012001F0ADFA642104E000218A
:1009D000012001F0A7FA0021022001F0A3FAE87E2D
:1009E000005D800705D56421052001F09BFA642194
:1009F00004E00021052001F095FA0021062001F015
:100A000091FAE87E005D400766E06421032001F072
:100A100089FA642104E00021032001F083FA002117
:100A20000420B6E7085DC00714D00021012001F0C2
:100A300079FA0021022001F075FA0021032001F06B
:100A400071FA0021042001F06DFA6421052001F003
:100A500069FA9AE70021012001F064FA00210220DE
:100A600001F060FA0021032001F05CFA002104206B
:100A700001F058FA0021052001F054FA87E7C00779
:100A800006D06421012001F04DFA642105E018E050
:100A90000021012001F046FA0021042001F042FA71
:100AA000E87E005D800705D56421032001F03AFA55
:100AB000642104E00021032001F034FA0021022027
:100AC00067E70021012001F02DFA0021022001F04A
:100AD00029FAE87E005D800700289CDA95E700008F
:100AE00078000020580000200248012101700021F8
:100AF000416070475800002010B537494868401CD5
:100B000048600A78012A62D132282DD2642101205E
:100B100001F012FA6421022001F00EFA6421032090
:100B200001F00AFA6421042001F006FA642105208C
:100B300001F002FA6421062001F0FEF96421072089
:100B400001F0FAF96421082001F0F6F96421092086
:100B500001F0F2F964210A2001F0EEF964210B2082
:100B600001F0EAF964212FE03238322830D8002130
:100B7000012001F0E1F90021022001F0DDF900215E
:100B8000032001F0D9F90021042001F0D5F900215A
:100B9000052001F0D1F90021062001F0CDF9002156
:100BA000072001F0C9F90021082001F0C5F9002152
:100BB000092001F0C1F900210A2001F0BDF900214E
:100BC0000B2001F0B9F900210C2001F0B5F910BD9E
:100BD0000020087010BD00005800002010B5C0466D
:100BE000C04610BD014600B501201422800300F06C
:100BF000A3FF00BD014610B501201422800300F0C0
:100C0000A4FF10BD70B5C406E40E0123A340002864
:100C100001DB184C23608407E40EFF25A5408907FB
:100C2000090EA140002808DB8608134CB6003419D1
:100C30002668AE430E4326600AE00407240F083CF2
:100C4000A6080E4CB6003419E669AE430E43E661C1
:100C5000012A08D0002805DB09480360BFF34F8F45
:100C6000BFF36F8F70BD0028FCDB05488038036040
:100C700070BD000080E200E000E400E000ED00E074
:100C800080E100E00449034ACA62044ACA62086378
:100C9000704700005A5A000000000240A5A500005D
:100CA00010B5C046C04610BDF8B51E4D044600261E
:100CB00068120095844201D90420F8BD1A4B03E064
:100CC0000098411E009122D3186AC006F8D4002073
:100CD000C043FFF7D7FF154A154F00950AE000996A
:100CE000481E009013D3DA62DF62186A8008800021
:100CF000801C1862186A8007800F0228EFD100203C
:100D00002070009505E00098411E009101D2092055
:100D1000F8BD186AC006F6D40020FFF7B3FF3046CE
:100D2000F8BD0000FFFFFF00000002405A5A00001B
:100D3000A5A50000FCB50D4614460021214F034631
:100D4000001901917912401E0097884201D90420B0
:100D5000FCBD1D4E03E00098411E009125D3306A72
:100D6000C006F8D4194A00970BE00098411E009184
:100D70001BD3F2621648F062306A80088000401C83
:100D80003062306A8007800F0128EED1801EFFF7A5
:100D900079FF0FE0287818705B1C641E6D1C0097AB
:100DA00005E00098411E009101D20920FCBD306A87
:100DB000C006F6D4002CEDD10020FFF763FF0198A8
:100DC000FCBD0000FFFFFF00000002405A5A000077
:100DD000A5A500000A7913071B0F042B0A680368F6
:100DE00007D0934303600A791207120F012A02D039
:100DF00005E01343F6E742680B681A4342600A793C
:100E00001207120F022A03D142680B689A4342600C
:100E10000A791206120F82680B6802D01A438260A8
:100E20000CE09A43826001238A681B059A4282691A
:100E30000B6801D11A4300E09A4382614A681203A9
:100E4000120F23D0CA68D203026C0B6801D51A4373
:100E500000E09A430264CA689203426C0B6801D5B1
:100E60001A4300E09A434264CA685203826B0B68DB
:100E700001D51A4300E09A438263CA681203C26B29
:100E8000096801D50A4300E08A43C263704710B580
:100E9000C046C046C046C046C046C046C046C04622
:100EA00010BD000070B501782A2974D05D4CFF296F
:100EB00002D14278AA2A05D05A4A4378927E0E2B54
:100EC0006AD06CE00221574AA1760321603A11747E
:100ED000D17381785174C178917401792177417906
:100EE00061778179A177C179E1771146037A803101
:100EF0000B70437A4B70837A8B70C37ACB70037B11
:100F00000B71437B4B71837B8B71C37BCB71037CF8
:100F10000B72437C4B72837C8B72C37CCB72C37D20
:100F2000D374037E1375C27E0A73027F4A73427FB5
:100F30008A73827FCA73C27F0A7402462032137892
:100F40004B7453788B749378CB74D3780B75137977
:100F50004B7553798B759379CB75D3790B76137A5F
:100F60004B76537A8B76937ACB76D37A0B77137B47
:100F70004B77537B8B77937B2A4DCB77D17B403557
:100F80002970807E287101F063F9E07E052802D87F
:100F9000291F405CA87370BD85780E2D14D01B29C5
:100FA00023D0CA29F7D1B62BF5D10179BB29F2D1CB
:100FB0008178C07809020918E27E01209040084239
:100FC000E9D000F0C5FC70BD022AFCD1C03920294F
:100FD000F9D2C2780E2AF6D102790E2AF3D1E1763F
:100FE000FFF708FEFFF780FD70BD2C2BFCD1C17808
:100FF0003D29F9D1022AF7D10B4D69780029F3D0A8
:1010000081782029F0D2E176C03101700E21417043
:101010008170C1700171FFF7EDFDFFF765FD0020E4
:10102000687070BDD800002058000020F8B500F0AE
:101030007FFE214B02001E491E4E18780ED001255E
:10104000002815D0471EBD40154209D05A68521CD1
:10105000D51F5A608D421DD201241EE0002822D0E7
:101060005A68D51F8D4220D3B24219D9042416E004
:101070000021284688401646104206D0002E01D096
:10108000491C00E0113119700DE0491CC9B210294A
:10109000EFD308E0B24206D90224587003E058703A
:1010A0000020586018702046F8BD0324F7E70000C0
:1010B000E1030000E80300004C00002000B589B007
:1010C00020216846FFF743F86846FFF78BFD0821AB
:1010D0006846FFF7F7FB6A46117A527A09028A18C6
:1010E0001D49904211D16846807848726846C078A0
:1010F000887268460079C872684640790873684605
:10110000807948736846C0790AE00120487202205D
:1011100088720320C87204200873052048730620D3
:101120008873684601780C48C039603020290FD296
:101130006A4652780E2A0BD16A4692780E2A07D157
:101140006A46D2780E2A03D16A4612790E2A00D056
:101150000021C17609B000BD7800002070B50024E0
:10116000322000F0B5FC1148C1694A060121002A6D
:1011700000DB0124C06902258006002800DB2C4327
:10118000E2070B480623002A08D00A4A4170D269B8
:10119000D20601D4417006E0457004E0A10701D5F4
:1011A0000321F7E743704370204670BD000E0240F4
:1011B00078000020000C024008B5002000900028B4
:1011C000FDD008BD10B5C046C04610BD10B5C04624
:1011D000C046C046C04610BD10B5C046C04610BD92
:1011E00010B500F0A3F810BD10B5FFF721FBFFF715
:1011F000FDFA094C3721204600F012F80121204663
:1012000000F012F8012202210920FFF7FBFC03493C
:101210001020486210BD000000400040000E024057
:1012200042698A434261704742680A43426070479C
:101230000069084070470000F8B50C0005464CD026
:10124000002068606168A068E26808432168114373
:10125000084321690843E16908436860A069C00048
:10126000FFF780F806466069FFF77CF83146FEF725
:10127000D2FF3F210906FEF775FFFFF789F880B21C
:10128000A861A069FFF776F8164A174BFFF702F836
:101290000646A8690F46C1006069FEF73BFFFFF7ED
:1012A00069F832463B46FFF787F814D3A069FFF789
:1012B00061F80E4A0E4BFEF7EDFF0646A8690F4691
:1012C000C1006069FEF726FFFFF754F832463B463F
:1012D000FFF786F803D20620F8BD0420F8BD0020F1
:1012E000F8BD00005C8FC2F5285CEF3F52B81E8548
:1012F000EB51F03F006808700020704706E003697A
:101300001B07FCD50B780360491C521E002AF6D13E
:1013100001698907FCD5416902229143416100209E
:10132000704710B5C046C04610BD000010B5154C42
:1013300001212046FFF77CFF002817D0142120460A
:10134000FFF776FF002804D014212046FFF768FF3E
:101350000CE00D492046FFF7CDFF01212046FFF7A5
:101360005FFF09486421007800F016F90821204643
:10137000FFF75EFF002803D008212046FFF750FF4B
:1013800010BD0000004000400900002010B5C0461C
:10139000C04610BD10B5C046C04610BD10B5C04611
:1013A000C04610BD10B5C046C04610BD10B5C04601
:1013B000C04610BD10B500F06BF90148006810BDC3
:1013C0000400002010B500F063F90448006800062E
:1013D000810F03480068C84010BD00000020004095
:1013E00004000020064A002805DA4000516B40083E
:1013F000014351637047116B014311637047000053
:101400000020004070B5024600782A4B400707D5FF
:1014100000F032F91868C0218843D1680843186089
:101420001078800707D500F027F91868382188431D
:10143000916808431860204C106921698907890F59
:10144000884207D300F00CF92069116980088000F8
:10145000084320611078C00710D0506820250F285D
:1014600022D000F009F918685168C008C00008438C
:10147000186000F001F99868A84398601069216924
:101480008907890F884207D200F0EAF820691169BC
:10149000800880000843206100F0FAF807480849F6
:1014A00000680860002070BD00F0E6F898682843E6
:1014B000E3E700000020004040000240040000205C
:1014C0000000002000B502460078144BC00715D07C
:1014D0009088C00407D500F0C3F811480169890855
:1014E0008900491C01615068186100F0C5F89868CE
:1014F00001210843986018690004FCD51078400762
:101500000AD59068986100F0B7F8986804210843FC
:10151000986098690004FCD5002000BD00200040C0
:101520004000024010B5C046C04610BD10B5FFF7E0
:1015300041FF0149086010BD0000002010B50E4BAE
:10154000988A81050D48890D8269920A92020A43A0
:101550008261598A0269C905C90D520A52020A43B9
:10156000026101690F225202914305225202891839
:101570000161FFF7DBFF10BDE00D1000002000400F
:1015800010B5044CE0780A2803D300F0EBFD0020EE
:10159000E07010BD7800002010B500290FD0084A77
:1015A000491E547D13461633E054507D0023884273
:1015B00002DA401C507500E053750248037010BDFC
:1015C000780000200800002010B509490878401C68
:1015D000C0B20870052809D3064C607D002803D0EE
:1015E00020461630FFF75EFC0020607510BD00003D
:1015F000080000207800002070B5074C1025A56277
:101600000A460146054B0648FFF778FEFF202D30BD
:1016100000F068FA656270BD000E0240FFFFFF0037
:1016200000400040802108430149086070470000E5
:10163000006800400268C1680A4341680A430349E0
:101640004A60806808600020704700000068004021
:101650000248016880221143016070470068004021
:1016600003480249C1620349C16270475A5A0000E7
:1016700000000240A5A5000003480249C1600349DB
:10168000C16070475A5A000000200040A5A5000024
:1016900070B51B48818A008A1A4DAA681A4C9206B6
:1016A00001D51A4A22602A685207520F022A0AD12B
:1016B000AA699205920D8A4202D10121C90301E073
:1016C0004B21490221602968490712D12969C905BE
:1016D000C90D814201D10E4800E00E482060286902
:1016E0003C21C00908400C4909582068FEF712FD4A
:1016F0002060286821688006400FC140216070BDCD
:10170000E00D100000200040040000200024F40040
:10171000800CA302006CDC02A82200002021020C35
:1017200001D010211046020A01D0104608390209E2
:1017300001D01046091F820801D01046891E4208B8
:1017400001D0881E7047081A704702E008C8121FAF
:1017500008C1002AFAD170477047002001E001C19A
:10176000121F002AFBD17047F8B56C480078012899
:101770006FD06B4C0125A07B0726C007002802D044
:101780002846002104E0E0790028284605D0012100
:1017900000F0D2FB3046002104E0002100F0CCFB39
:1017A0003046012100F0C8FBA07B082781070220FA
:1017B000002901DA002105E05949491CC9790029AD
:1017C00005D0012100F0B8FB3846002104E00021DB
:1017D00000F0B2FB3846012100F0AEFBA07B0927E8
:1017E00041070320002901DA002105E04C49891C4A
:1017F000C979002905D0012100F09EFB384600215F
:1018000004E0002100F098FB3846012100F094FB31
:10181000A07B04270007002802DA3846002106E0F2
:101820003F48C01CC0790028384605D0012100F08F
:1018300083FB0A20002104E0002100F07DFB0A2048
:10184000012100F079FBA07BC00603D50520002113
:1018500007E05DE03248001DC079002806D0052071
:10186000012100F069FB0B20002105E0052000218B
:1018700000F062FB0B20012100F05EFBA07B0C243A
:1018800081060620002901DA002105E02449491DCE
:10189000C979002905D0012100F04EFB2046002126
:1018A00004E0002100F048FB2046012100F044FB49
:1018B0001B4CA03C6078032817D12846002100F07B
:1018C0003BFB3046002100F037FB0520002100F0F3
:1018D00033FB0B20002100F02FFB3846002100F0E5
:1018E0002BFB0A20002100F027FB607802280FD193
:1018F0002846002100F020FB3046002100F01CFBB0
:101900003846002100F018FB0A20002100F014FBEB
:101910000221044800F03EF9F8BD00005800002004
:1019200018010020120000200848027D417C1206A8
:101930008918C27C807C1204000210180918034820
:101940006030C27E0120904008407047780000203F
:1019500000B56421072000F0E5FA00BD00B512498A
:10196000886800281ED0401E88601BD10F4840792F
:10197000012804D0FFF7D8FF002809D002E0142086
:1019800000F0A2FB00F014F800280BD1002106E0C3
:1019900000F00EF8002805D10448A038017C07208B
:1019A00000F0C0FA00BD00000C000020180100206B
:1019B0001748C17900291CD00021027A002A1AD0C8
:1019C00000221140427A002A17D000221140827A68
:1019D000002A14D000221140C27A002A11D000221D
:1019E000007B114000280ED0002001420DD00020C5
:1019F00070470121E1E70122E3E70122E6E7012246
:101A0000E9E70122ECE70120EFE701207047000041
:101A10001801002010B500231A4604E0845CE31886
:101A2000521CDBB2D2B28A42F8D3FF200130C01A76
:101A3000C0B210BDF8B504460F4D0E4868610026CF
:101A4000AE61052028610D48012700683F0600901F
:101A500008E0AE610A490098FEF75CFB381AA969F4
:101A60008142FCD8641EF4D22869400840002861F5
:101A7000F8BD0000FFFFFF0000E000E000000020D4
:101A8000A0860100F8B504460F4D0E486861002697
:101A9000AE61052028610D48012700683F060090CF
:101AA00009E0AE617D21C9000098FEF733FB381ACA
:101AB000A9698142FCD8641EF3D22869400840001D
:101AC0002861F8BDFFFFFF0000E000E000000020FB
:101AD00005E028221E21491EFDD1521EFAD1401ECA
:101AE000F7D27047F8B5012302240525062616E033
:101AF00000226F463A703B703C700321397004211C
:101B000039703D703E70072139703A703B703C70FF
:101B100003223A7004223A703D703E703970401EC4
:101B2000E6D2F8BD10B5FFF7C9FA02480221817666
:101B300010BD0000D800002010B5002302E0C45CF6
:101B4000CC545B1C9342FAD310BD70B514460D46BD
:101B500006463046FFF7A8F80028FAD12246294663
:101B60003046FFF7E7F80028F8D170BD10B5084CF3
:101B70002046FEF75CFD2046FEF754FD0028FAD013
:101B80002046FEF71BFD2046FEF71EFD10BD00009F
:101B900000240040F3B51C4881B0022141620120BD
:101BA000FFF7A0FF0026202720E001980024855D94
:101BB000164847620120FFF795FF280603D5144910
:101BC0000820886202E01249082048620120FFF7DD
:101BD00089FF0E4887620120FFF784FF6806641CB6
:101BE000050EE4B2082CE3D3761CF6B202988642C6
:101BF000DBD30120FFF776FF034D0224AC62012006
:101C0000FFF770FF6C62FEBD000C0240000D024049
:101C1000000E024010B5214C202020700122082126
:101C2000022000F03DF801222021104600F038F893
:101C300001220221002000F033F8FEF767FD0022A8
:101C40004021022000F02CF800222021022000F088
:101C500027F800221021104600F022F8002204216B
:101C6000032000F01DF801221021022000F018F8D6
:101C7000FEF742FDFFF7B8FA20460021A03041717F
:101C8000FFF750FF0120E07303202074FFF760FE90
:101C9000FFF764FA2072FEF7F9FD10BD780000200E
:101CA0001FB500230193029303930091012A05D0ED
:101CB0000121002A05D0032A08D009E00221019160
:101CC00006E0019101210905029101E002930191D1
:101CD00000280BD0012810D0022817D0032814D1D7
:101CE0000E48FFF77FFB69460D480CE00B48C01F0C
:101CF000FFF778FB69460B4805E00848801FFFF7AF
:101D000071FB69460848FFF765F81FBD0348001FCF
:101D1000FFF768FB69460548F5E70000080000800A
:101D2000000F0240000C0240000D0240000E024075
:101D300010B50024FFF71AFF3C2801D801241EE04B
:101D400001463139782901D8022418E00146E339E7
:101D5000782901D8042412E00146FF399E397829F8
:101D600001D808240BE007494118782901D810242C
:101D700005E004497C394018782800D82024204602
:101D800010BD0000C5FDFFFF3EB50B4600F016F884
:101D9000AA226C46227063700021A1700649C97E98
:101DA000E170207105216846FFF734FE607106215D
:101DB0006846FFF721FC3EBDD8000020334A517829
:101DC000062935D003290ED0012951D004292FD05E
:101DD00002292DD1117820292DD0012844D00021AD
:101DE000022847D041E0012803D00021022805D075
:101DF00000E00121002211433AD101E00122FAE77B
:101E0000052803D00021062805D000E0012100228A
:101E1000114327D101E00122FAE7032803D0002172
:101E2000042806D000E001210022114300D0032045
:101E300070470122F9E7012803D00021042805D0CA
:101E400000E001210022114312D101E00122FAE752
:101E5000032803D00021022815D012E0012110E050
:101E60001143E5D00220704701210022114303D025
:101E7000012070470122F9E70328EFD00021042850
:101E800001D00022ECE70122EAE700007800002000
:101E900010B5FFF7CBF8054C01466078002803D059
:101EA00000F006F80020607010BD00004C0000201B
:101EB00070B51B4C054601290FD002291AD0002607
:101EC000032928D0042907D16420FFF7DBFD042172
:101ED0002846FFF759FFA67070BDA078C007FBD158
:101EE000284600F099F800212846FFF74DFFA0781A
:101EF00001210DE0A078C006EED400F06BF864205C
:101F0000FFF7C0FD03212846FFF73EFFA078102110
:101F10000843A07070BD6420FFF7B4FD0121D7E72E
:101F20004C000020072803D8024A1018A030817105
:101F3000704700007800002010B5002811D010284C
:101F40000FD8094C2346283B1A461832121820187D
:101F50002038203AC07F0029195CD27F02D011437B
:101F6000195410BD9143FBE73A000020FFF752FEE1
:101F7000FFF706FB00F0EEF8FAE7000070B5134932
:101F800000234878401C0006000E48701DD0002039
:101F90000E460F4C17364870F51FE85CF15C88421E
:101FA0000BD9401EE854607901280AD1A87900288D
:101FB00007D1142000F088F803E0884201D2401CC9
:101FC000E8545B1CDBB2072BE7D370BD0C0000208C
:101FD0001801002008B5B12069460870B220487089
:101FE000B320887003216846FFF706FB02480121F1
:101FF00041701421817008BD58000020054988787F
:10200000002805D0401E0006000E887000D14870E0
:10201000704700005800002030B520A106C98FB0DD
:102020000E920D91FF216A461170AA215170002174
:102030009170D1701B4A0DAB12181A4C203A181827
:10204000D57F083CE3782038002D04D0D177C07FBD
:102050008343E37004E00125D577C07F1843E07027
:10206000E0786A46107150719071D07110725072A0
:102070009072D072107351739173D1730491059162
:1020800006910791089109910A9108AA0B91117480
:1020900051746846FEF706FF0FB030BD0102040818
:1020A00010204080600000200EB5CA2069460870EC
:1020B000B6204870FF208870C870BB2008710521C9
:1020C0006846FFF799FA0EBD024901228A7102495A
:1020D00088707047180100200C000020064988789D
:1020E000002807D0401E0006000E887002D1034869
:1020F00000218171704700000C00002018010020B1
:1021000070B51148417901291CD18079012819D075
:102110000E4C0F49E078401CC0B2E070C9690F282E
:1021200010D90025E57020790D2809D9607900289B
:1021300003D1FFF7B9FFFFF70BFC0120607100E04E
:102140006571257170BD0000180100200C00002091
:10215000000F024010B502488068FFF763FA10BD17
:102160006800002070B5224D224E28680024B0423D
:1021700000D32C606868002806D0FFF789FEFFF7BF
:1021800023FAFFF7BDFF6C60A8680A2804D3FFF7A5
:10219000F5FEFFF7E9FAAC607D21E868C9008842E6
:1021A00002D3FFF7DBFBEC602869322802D3FEF78D
:1021B00099FB2C6168690A2802D3FEF79DFC6C61CB
:1021C000A869642806D3FFF789FFFFF717FF00F01F
:1021D0005BF8AC61E869B04200D3EC61286AB042B8
:1021E00000D32C62686AB04200D36C6270BD0000FC
:1021F0002801002050C30000134A1168491C1160D7
:10220000814220D311480168491C01604168491C82
:1022100041608168491C8160C168491CC1600169D5
:10222000491C01614169491C41618169491C816105
:10223000C169491CC161016A491C0162416A491CAA
:1022400041620020106070475400002028010020E7
:1022500000B5FFF769FB0A49002808D00846A038F6
:10226000C07B084A002804D0C82804D93F208873BE
:1022700000BD322001E0C1004018D06000BD000068
:10228000180100200C0000200549C868002805D06E
:10229000401EC86002D103483F218173704700008F
:1022A0000C000020180100200200000004000000C3
:1022B00006000000080000000A0000000C000000FA
:1022C0000E0000001000000001000000EC220000E1
:1022D00000000020680000004A170000542300009E
:1022E00068000020E80200005A17000000093D00C5
:1022F00000093D0000000000000000000000000098
:1023000000000000000000000000000000000000CD
:1023100000000000000010204080010201020408BB
:1023200004081020408001010101000001010101A9
:10233000000000000000000000000000000000009D
:10234000000000000000000000000000000000008D
:042350000000000089
:04000005000000C136
:00000001FF
