:020000040000FA
:1000000058050020D5000000EF000000211A000074
:1000100000000000000000000000000000000000E0
:10002000000000000000000000000000F3000000DD
:100030000000000000000000F5000000F91E0000B4
:10004000D11C0000D91C0000E11C0000E91C0000CC
:10005000F9000000C1060000F9000000F9000000EE
:100060004B1A0000531A0000F11C0000F9000000B8
:10007000371A0000F9000000F9000000FF1200002C
:10008000F9000000F9000000F9000000F90000008C
:10009000F9000000F90000003F1A0000F90000001C
:1000A000E7050000F9000000F9000000F900000079
:1000B000571C0000F9000000850F0000DD0E000055
:1000C0000348854600F03EFA00480047B7050000A7
:1000D0005805002009480A4A002100A1814200D9A0
:1000E0000244084802600848804708480047FEE785
:1000F000FEE7FEE7FEE7FEE7FEE700000000002067
:100100000000000008ED00E0111F0000C100000029
:10011000F8B502464A40D40F42004B0052085B0833
:100120009A4202D20246084611464A0023D0C30D25
:100130004A00DDB2120EAD1A202D35DA4902012631
:10014000490AF6058A19002C00D0524220214F1B83
:100150001146B9402A411018C20D9A4221D0002CF4
:1001600017D0012D08DCDA05801AD20F8019D207CA
:10017000DBB200F04FF9F8BDDA05801A0123400028
:100180001B06C01880185A428018CA0F1043490035
:1001900007E04908C2071143DA05801A80194008B0
:1001A000801800F02FF9F8BD61000122511A001BE0
:1001B000F7E70122D2075140AAE70122D2075040B7
:1001C000A6E770B502464A40D50F40004A00ED0749
:1001D00040085208002814D0002A12D0C40DD30DB4
:1001E00041020120C0055202490A520AE41A0918C4
:1001F00012187D34914201D3641C00E04900002CA8
:1002000001DA002070BD0023914201D3891A034313
:10021000400849000028F7D100290AD0914202D1B4
:100220000121C90705E0914201D2012101E001212C
:10023000C943E005C018401900F0E4F870BD0000A3
:10024000F0B51FB488B00B9909980024484009996B
:10025000C00F490049080991C0070B990090490057
:1002600049080B9109990898A64608431CD00B9998
:100270000A98084318D0099801244000420D48000C
:10028000410D099824050003000B204309900B98A9
:100290000003000B20430B9050181C49401800220B
:1002A00001901446104605E0002001460DB0F0BD57
:1002B000032801DA034600E003239C46C11A0AAE74
:1002C0000AE05F0008ADED5B4F00F75B7D43002760
:1002D000AA187C41491C5B1E6145F2DD410004AB5C
:1002E0005A522104120C0A43240C401C0828DFDB5C
:1002F000019802900099704601910090059B049A24
:100300000799069800F0CCF8D0E700000DFCFFFF3D
:1003100010B5002904DB0C460121C9074042A14168
:10032000002B04DB1C460123DB075242A341801A49
:10033000994101D3012010BD002010BD10B5002946
:1003400004DB0C460121C9074042A141002B04DB1C
:100350001C460123DB075242A341101A8B4101D2F4
:10036000012010BD002010BD10B5002296231146BB
:1003700000F050F810BD00000EB5054902910021B3
:1003800000910A460B46019100F08AF803B000BDC7
:1003900033040000C20F410040020123400ADB0584
:1003A000D207090EC0187F2901DA0020704796296C
:1003B00003DC9623591AC84001E096398840002A88
:1003C000F4D04042704770B50446002903D00020A5
:1003D0002022012310E0002801D00020C043C046A5
:1003E000C0460DE02546D5408D4205D30D469540CB
:1003F000641B1D46954040191546521E002DF1DC28
:10040000214670BD002904DA401C490001D1400892
:100410004000704770B40024050C05D1102400047E
:1004200002D1002921D01124050E01D10002083487
:10043000050F01D10001241D850F01D18000A41CEE
:10044000002801DB4000641C002908D020252E1B59
:100450000D46F540A14000D0012129430843010683
:100460001B1B000ADB1D02D5002070BC7047DB059A
:10047000181880180029F8DA401C4900F5D170BC22
:1004800040084000704710B5002B08DA0024401CDB
:10049000614192185B411A4301D14008400010BDF0
:1004A000F0B51FB482B005460C0003D0084603F037
:1004B00045F802E003F042F8203002460090214661
:1004C000284600F057F8049B059A04460F46184347
:1004D0001143084314D0184610431BD00098402104
:1004E0000A1A1846059900F055F805460E46009A76
:1004F0000599049800F03EF8084305D0012004E077
:100500002046394607B0F0BD0020C11705430E4311
:100510002C43374300990E986305401A7905E40A85
:1005200000220C43FD0A0A3002D500200146E9E70B
:100530000105101969410C9C0D9D00196941FFF7D7
:10054000A2FFDFE71CB50948009009480190054665
:100550000126009C05E0E36807CC33430C3C984738
:100560001034AC42F7D3FFF7AFFD0000AC3500000C
:10057000CC35000010B5202A04DB0146203A91401A
:10058000002010BD914020239C1A0346E3401943EC
:10059000904010BD10B5202A04DB0846203AD04018
:1005A000002110BD0B46D340D0402024A21A914018
:1005B0000843194610BD80B501F0AAFC02F0A0FD69
:1005C000002080BD81B000900099B8228858012396
:1005D0009843885001B0704781B000900098A021E6
:1005E000405801B0704780B5C046C04680BD00008D
:1005F00080B584B0029001910198002804D1FFE7F2
:1006000003A90420087027E00298406814490840B4
:10061000019A1168936819435268114301430120FC
:100620000143029A5160029989680F22D243114016
:10063000019BDB681943029B99600299BC23C9584E
:100640001140019A12691143029AD15002F0C0F888
:1006500003A900200870FFE703A8007804B080BD5C
:10066000E2C9FFFF81B000900098B02140580121FD
:10067000084001B0704781B000900099C0228858AE
:1006800001231843885001B07047000081B00090EA
:10069000009A034908689043086001B07047C0465B
:1006A0001458004081B00090044800680099084048
:1006B000401A4142484101B07047C04610580040BE
:1006C00080B500F041F880BD81B000906846008898
:1006D0000149086001B070470058004081B00090A7
:1006E000684600880149086001B07047045800401E
:1006F0001449086801229202104308607047C046FE
:1007000010B581B000900F4908680A4A1040009B5C
:100710001A685C6822439C682243DC6822431C6997
:1007200022435C6922439B691A431043086001B06D
:1007300010BDC04681CCFFFF02490868012210436A
:10074000086070470C58004080B50120FFF7AAFFF1
:1007500001280BD1FFE70649C878401CC8700A2061
:1007600002F076FE0120FFF791FFFFE780BDC04653
:100770002C00002080B500F069F8192000F028F85E
:10078000FFF7DAFF80BD000080B588B00020079039
:10079000069005900490039001200190000401F060
:1007A000BDFA01981C210391032109030491400221
:1007B0000590082006900548029003A9FFF718FF4E
:1007C0000298FFF7FFFE08B080BDC046002400403D
:1007D00080B58EB00DA90880002001900A90099084
:1007E0000890079006900590049001200390C002A5
:1007F00001F094FA01980490099040210791022198
:100800000A9108900690059004A8FFF779FF0398D5
:100810000D9900040290411A0CA801800088FFF78E
:1008200053FF02980D99411A0BA801800088FFF729
:1008300055FF0398FFF72AFFFFF75AFF039A052099
:10084000032100F065FB0EB080BD000080B58AB0CA
:100850000020009009900890079006900590049061
:10086000039002900190012006900A48008805211B
:1008700049020843079006A801F0F0FA0098072102
:100880000191029003900490059001A801F066FA8E
:100890000AB080BDF20D100080B58AB00020019032
:1008A000099008900790069005900490039002909C
:1008B000082001F033FA0198049003904020029040
:1008C0001020059005204002069001F01BFA0790C9
:1008D0004B20C0010890034802A901F0F9F80AB0C2
:1008E00080BDC04600400040B0B588B000200790F1
:1008F000069005900490154801F010FA1449202044
:1009000008600221059104900120039004050694DB
:100910001048019004A9029100F03AFC0198029954
:10092000039A05924022049200F032FC039A0A498D
:1009300008680F231D05A8430019086008681B06F6
:10094000984312068018086008B0B0BD0800008007
:10095000280F0240000F0240300F024080B582B0E5
:100960000C4801F0DBF90C48019001214902C160FB
:10097000472181607F2141600721C902016001F0A8
:1009800067FB01F079FB0198806801F057FB02B02A
:1009900080BDC04600040080F000002086B00590B5
:1009A00004A8017002A90020087001A90870009035
:1009B00003A90870FFE703A8007804A90978884212
:1009C00015DAFFE7059803AA1178415C02984840C0
:1009D00002A90870019805991278895C401801A94C
:1009E0000870FFE70398401C03A90870E3E702A81A
:1009F000007800900098000201A909784018009042
:100A0000009806B07047000080B592B0E04840788A
:100A100011A90870E3480078012801D1FFE7B4E18B
:100A2000DB487A21405C022800D0AEE111A80078B2
:100A3000001F0221C943084279D1FFE7D4487B2136
:100A4000415C40187C21405CC007002805D0FFE7CE
:100A50000120642102F0F8FA04E00120002102F0F4
:100A6000F3FAFFE7CA487B21415C40187C21405CD7
:100A70008007002805D5FFE70220642102F0E4FA90
:100A800004E00220002102F0DFFAFFE7C0487B21EA
:100A9000415C40187C21405C4007002805D5FFE7F9
:100AA0000320642102F0D0FA04E00320002102F0C8
:100AB000CBFAFFE7B6487B21415C40187C21405CC3
:100AC0000007002805D5FFE70420642102F0BCFAE6
:100AD00004E00420002102F0B7FAFFE7AC487B21D4
:100AE000415C40187C21405CC006002805D5FFE72A
:100AF0000520642102F0A8FA04E00520002102F09C
:100B0000A3FAFFE7A2487B21415C40187C21405CAE
:100B10008006002805D5FFE70620642102F094FA3C
:100B200004E00620002102F08FFAFFE72CE111A873
:100B3000007803285BD1FFE795487B21415C401892
:100B40007C21405CC00700280AD0FFE70120642117
:100B5000109102F079FA1099022002F075FA09E07A
:100B6000012000210F9102F06FFA0F99022002F08C
:100B70006BFAFFE786487B21415C40187C21405C92
:100B8000800700280AD5FFE7052064210E9102F0B6
:100B90005BFA0E99062002F057FA09E005200021C1
:100BA0000D9102F051FA0D99062002F04DFAFFE77F
:100BB00077487B21415C40187C21405C400700283D
:100BC0000AD5FFE7032064210C9102F03DFA0C994D
:100BD000042002F039FA09E0032000210B9102F011
:100BE00033FA0B99042002F02FFAFFE7CBE011A8AB
:100BF0000078012840D1FFE765487B21415C40181F
:100C00007C21405CC00700281BD0FFE701200021A9
:100C1000099102F019FA0999022002F015FA0999CE
:100C2000032002F011FA0999042002F00DFA0520C0
:100C300064210A9102F008FA0A99062002F004FAE7
:100C400019E001200021089102F0FEF90899022024
:100C500002F0FAF90899032002F0F6F90899042045
:100C600002F0F2F90899052002F0EEF90899062041
:100C700002F0EAF9FFE785E011A80078022800D029
:100C80007FE04348007820283DD1FFE740487B21A2
:100C9000415C40187C21405CC00700280AD0FFE777
:100CA00001206421079102F0CFF90799042002F096
:100CB000CBF909E001200021069102F0C5F906995F
:100CC000042002F0C1F9FFE731487B21415C401864
:100CD0007C21405C800700280AD5FFE703206421BF
:100CE000059102F0B1F90599022002F0ADF909E091
:100CF00003200021049102F0A7F90499022002F0D8
:100D0000A3F9FFE73CE022487B21415C40187C21AD
:100D1000405CC00700280AD0FFE70120642103914E
:100D200002F092F90399022002F08EF909E0012005
:100D30000021029102F088F90299022002F084F960
:100D4000FFE713487B21415C40187C21405C800711
:100D500000280AD5FFE703206421019102F074F90D
:100D60000199042002F070F909E0032000210091AC
:100D700002F06AF90099042002F066F9FFE7FFE744
:100D8000FFE7FFE7FFE7FFE7FFE712B080BDC046E0
:100D90002C0000205049012008704E4900200860B6
:100DA0007047C046E400002080B588B04949086813
:100DB000401C086048480078012800D088E0454879
:100DC0000068312832D8FFE701206421079102F042
:100DD00051F90799022002F04DF90799032002F01A
:100DE00049F90799042002F045F90799052002F016
:100DF00041F90799062002F03DF90799072002F012
:100E000039F90799082002F035F90799092002F00D
:100E100031F907990A2002F02DF907990B2002F009
:100E200029F907990C2002F025F950E029480168BA
:100E3000039101200490002205923129069001D8E7
:100E40000598069004980399069A019265290290E4
:100E500001D30598029001980299084232D0FFE729
:100E600001200021009102F005F90099022002F012
:100E700001F90099032002F0FDF80099042002F026
:100E8000F9F80099052002F0F5F80099062002F023
:100E9000F1F80099072002F0EDF80099082002F01F
:100EA000E9F80099092002F0E5F800990A2002F01B
:100EB000E1F800990B2002F0DDF800990C2002F017
:100EC000D9F803E0044900200870FFE7FFE7FFE7D7
:100ED00008B080BD1C010020E400002080B5C046A1
:100EE000C04680BD80B582B0019001990120800389
:100EF000142201F037FD02B080BD80B582B00190B0
:100F0000019901208003142201F046FD02B080BD4A
:100F100080B588B0034607A80290037006AB039320
:100F2000197005A904910A7000210191405601F041
:100F30003BF9019A029803998056097801F07AF9F1
:100F400004980078012806D1FFE7002107A8405641
:100F500001F05AF905E0002107A8405601F03AF9DE
:100F6000FFE708B080BD000081B000908549864849
:100F700008608648086000980149086001B0704721
:100F80003000024080B5C046C04680BD80B584B008
:100F9000029001A900200870784800900298C00BC8
:100FA000002807D0FFE701A904200870019803A9D1
:100FB000087058E071480090FFE771480068C0066B
:100FC000C00F00280BD0FFE70098411E00910028B9
:100FD00004D1FFE703A90920087044E0EDE70020F1
:100FE000C043FFF7C1FF65480090FFE76448006811
:100FF00003210840022818D0FFE70098411E009105
:1010000000280DD0FFE75F495F4808605F4808602F
:101010005B4908680222104301229043086003E004
:1010200003A9092008701EE0E0E70299002008707B
:1010300052480090FFE752480068C00600280BD5D0
:10104000FFE70098411E0091002804D1FFE703A9A3
:101050000920087007E0EEE70020FFF785FF019800
:1010600003A90870FFE703A8007804B080BDC0465C
:1010700080B588B006900591049203A900200870FD
:101080003E48029006980190069804994018401E28
:10109000C00B002807D0FFE703A9042008700398BD
:1010A00007A9087065E035480290FFE734480068FA
:1010B000C00600280BD5FFE70298411E02910028C8
:1010C00004D1FFE707A90920087052E0EEE72B489A
:1010D0000290FFE72A48006803210840012818D041
:1010E000FFE70298411E029100280DD0FFE7254935
:1010F00025480860254808602149086801221043F6
:1011000002229043086003E007A90920087030E03C
:10111000E0E70020C043FFF727FFFFE7049800281F
:1011200020D0FFE70598411C0591007801994A1CE1
:10113000019208700498401E049010480290FFE746
:101140000F480068C00600280BD5FFE70298411E33
:101150000291002804D1FFE707A90920087008E0E0
:10116000EEE7DBE70020FFF7FFFE039807A9087012
:10117000FFE707A8007808B080BDC046FFFFFF006A
:10118000200002402C0002405A5A0000A5A5000091
:1011900082B001900091009840680F210840042817
:1011A00007D1FFE7009802680199086810430860BA
:1011B00006E0009802680199086890430860FFE71C
:1011C000009840680F210840012807D1FFE70098E8
:1011D00002680199486810434860FFE7009840683A
:1011E0000F210840022807D1FFE700980268019903
:1011F000486890434860FFE7009800790006000FB8
:10120000002807D0FFE7009802680199886810431A
:1012100088601BE0009802680199886890438860A4
:101220000098806801210905884207D1FFE70098EE
:101230000268019988691043886106E00098026895
:101240000199886990438861FFE7FFE700988079FA
:101250000007002851D0FFE70098807BC0070028D6
:1012600007D0FFE7009802680199086C10430864F2
:1012700006E0009802680199086C90430864FFE753
:101280000098807B8007002807D5FFE70098026858
:101290000199486C1043486406E00098026801997F
:1012A000486C90434864FFE70098807B4007002823
:1012B00007D5FFE7009802680199886B104388639F
:1012C00006E0009802680199886B90438863FFE705
:1012D0000098807B0007002807D5FFE70098026888
:1012E0000199C86B1043C86306E000980268019931
:1012F000C86B9043C863FFE7FFE702B0704780B553
:10130000C046C046C046C046C046C046C046C046AD
:1013100080BD000080B586B005900020049005983F
:1013200000782A2801D1FFE7A3E105980078FF287B
:1013300000D0FCE005984078AA2800D0F7E0059896
:10134000017D0391142101F01DFA014603988842A2
:1013500010D0FFE70598407DF12809D1FFE70598F7
:10136000807DF22804D1FFE70599F120487500E05F
:101370007FE1FFE7C04902917A22022088540320CE
:101380000874C8730598807848740598C078887484
:10139000059800797C2288540A467C320092059890
:1013A000407950700598807990700598C079D07018
:1013B0000598007A10710598407A50710598807AE6
:1013C00090710598C07AD0710598007B10720598CD
:1013D000407B50720598807B90720598C07BD072DC
:1013E0000598007C10730598407C50730598807CAC
:1013F00090730598C07CD0730598C07DC87405981B
:10140000007E08750598C07E10740598007F5074A2
:101410000598407F90740598807FD0740598C07FB0
:10142000107505982023C05C507505982123C05C79
:10143000907505982223C05CD07505982323C05C65
:10144000107605982423C05C507605982523C05C4F
:10145000907605982623C05CD07605982723C05C3B
:10146000107705982823C05C507705982923C05C25
:10147000907705982A23C05CD07705982B22805C52
:101480009C2288540A469C32019205982C23C05C09
:10149000507005982D23C05C907005982E23C05C79
:1014A000D07005982F23C05C107105983023C05C64
:1014B000507105983123C05C907105983223C05C4F
:1014C000D07105983323C05C107205983423C05C3A
:1014D000507205983523C05C907205983623C05C25
:1014E000D07205983723C05C107305983823C05C10
:1014F000507305983923C05C907305983A23C05CFB
:10150000D0730598807EAC22885401F0D7FF0298F2
:101510007B21405C0F2809DCFFE757497B20085CF2
:1015200008189C22805CB6228854FFE7A0E005984A
:1015300040780E2837D1FFE7059880780E2832D101
:10154000FFE74D487A21405C022801D0FFE790E098
:1015500005980078C02825DBFFE705980078DF288C
:1015600020DCFFE7059840780E281BD1FFE705989F
:1015700080780E2816D1FFE70598C0780E2811D183
:10158000FFE7059800790E280CD1FFE70598007851
:10159000C038F9497B2288540598FFF7AEFCFFF765
:1015A000F9FBFFE763E0059800781B2838D1FFE7D7
:1015B000059840782C2833D1FFE70598C0783D285E
:1015C0002ED1FFE7EC487A21405C022801D0FFE7EA
:1015D0004FE02A480078002801D1FFE749E005984C
:1015E00080781F281BDCFFE705988278E2487B2182
:1015F0004254405CC0300599087005990E2048702F
:10160000059988700599C870059908710598FFF7C4
:1016100074FCFFF7BFFB194900200870FFE725E0C5
:1016200005980078CA2820D1FFE705984078B628A9
:101630001BD1FFE705980079BB2816D1FFE7059974
:1016400088780002C97840180490F3487B21415CF7
:10165000012088400499084004900498002803D091
:10166000FFE701F023F8FFE7FFE7FFE7FFE7FFE70A
:10167000FFE706B080BDC0462C0000201A01002004
:1016800080B598B000201490139001F0EDFA1390FB
:101690001398002803D0FFE71398149002E000206D
:1016A0001490FFE71498002800D1B5E07B4800783B
:1016B000002827D1FFE717A900200870FFE717A827
:1016C00000780F281DDCFFE7149817A90978C84097
:1016D000C00700280FD0FFE71398002805D0FFE7C8
:1016E0001798401C6D49087004E0179811306B4939
:1016F0000870FFE705E0FFE71798401C17A908707E
:10170000DDE788E01398002809D0FFE714986349C3
:1017100009784A1E012191400840159008E014986C
:101720005E490A78113A0121914008401590FFE77F
:101730001598002836D0FFE759480168491C016018
:1017400001680F9101201090002211920629129039
:1017500001D81198129010980F99129A0D92C908F9
:101760007D290E9001D311980E900D980E99084284
:1017700008D0FFE716A901200870484800784A49B8
:1017800008700EE0464800684649884208D3FFE7E3
:1017900016A9022008704148007843490870FFE705
:1017A000FFE737E03E480168099101200A900022D6
:1017B0000B9206290C9001D80B980C900A98099965
:1017C0000C9A0792C9087D29089001D30B980890BC
:1017D00007980899084208D0FFE716A90320087067
:1017E0002E480078304908700EE02D4800682D49D9
:1017F000884208D3FFE716A904200870274800781C
:1018000029490870FFE7FFE72549002008602349C0
:101810000870FFE7FFE73DE020480078012838DB4B
:10182000FFE71F4801680391012004900022059200
:101830000629069001D80598069004980399069AFF
:101840000192C9087D29029001D305980290019860
:101850000299084208D0FFE716A9032008700F4834
:101860000078114908700EE00D4800680D49884263
:1018700008D3FFE716A904200870084800780A4931
:101880000870FFE7FFE70649002008600349087079
:10189000FFE7FFE716A8007818B080BD0801002018
:1018A00004010020E90300000901002080B58CB08C
:1018B00004A802900021019181830A910991089165
:1018C0000791069105910491FFF70CFB0298017AAC
:1018D0000902427A891803910821FFF75FF801464F
:1018E000039888420FD1FFE704A882784A494A72D8
:1018F000C2788A72059ACA7242790A7382794A73E7
:10190000C07988730DE04449012048720220887232
:101910000320C872042008730520487306208873CA
:10192000FFE704A80078C0281FDBFFE704A80078C1
:10193000DF281ADCFFE704A840780E2815D1FFE75E
:1019400004A880780E2810D1FFE704A8C0780E28DC
:101950000BD1FFE704A800790E2806D1FFE7049811
:10196000C0382D497B22885404E02B497B2200207B
:101970008854FFE70CB080BD2C00002080B582B0F9
:1019800001A900200870322000F090FF2148006873
:101990004006002806D4FFE701980121084301A969
:1019A0000870FFE71B4800688006002806D4FFE7A0
:1019B00001980221084301A90870FFE701A80078F7
:1019C000C007002812D0FFE71349012048701348D0
:1019D0000068C006002804D4FFE70F4901204870C2
:1019E00003E00D4902204870FFE70EE001A80078EF
:1019F0008007002804D5FFE707490320487003E06B
:101A0000054906204870FFE7FFE701A8007802B00B
:101A100080BDC0461C0E02402C0000201C0C024061
:101A200081B000200090FFE70098002801D1FFE777
:101A3000FAE701B0704780B5C046C04680BD80B5AA
:101A4000C046C046C046C04680BD80B5C046C04600
:101A500080BD80B500F004F980BD000080B582B083
:101A6000FEF742FFFEF718FF97480090372100F07D
:101A700011F800980121019100F016F8019A09204F
:101A80000221FFF745FA02491020086002B080BD2C
:101A9000240E024082B001900091009A0199486999
:101AA0009043486102B0704782B001900091009A63
:101AB000019948681043486002B0704782B00190B5
:101AC0000091019800690099084002B07047000039
:101AD00080B58CB00A90099108A9012008700020F7
:101AE00007900998002804D1FFE70BA9042008708B
:101AF0006EE00A9900204860099988684A68104396
:101B00000A681043CA6810430A691043C969084348
:101B10000A994860099803904069FEF725FC014640
:101B2000039804918069C000FEF71EFC01460498EA
:101B3000FEF747FB079007983F210906FEF7E8FAF2
:101B4000FEF728FC0A998861099840690A99896911
:101B5000C900FEF738FCFEF70FFC059006910998C6
:101B60008069FEF709FC1C4A1C4BFEF769FB024624
:101B700005980B460699FEF7E1FB00281CD1FFE70C
:101B8000099840690A998969C900FEF71CFCFEF7AB
:101B9000F3FB0190029109988069FEF7EDFB104A72
:101BA000104BFEF74DFB024601980B460299FEF7DB
:101BB000AFFB002804D1FFE708A90620087003E066
:101BC00008A900200870FFE708980BA90870FFE734
:101BD0000BA800780CB080BD5C8FC2F5285CEF3F8D
:101BE00052B81E85EB51F03F82B0019000910198F0
:101BF000006800990870002002B0704784B003901C
:101C0000029101920093FFE70198002813D0FFE7AB
:101C1000FFE7039800690007002801D4FFE7F8E711
:101C200002980078039908600298401C029001987D
:101C3000401E0190E8E7FFE703980069800700284D
:101C400001D4FFE7F8E7039948690222904348610D
:101C5000002004B0704780B5C046C04680BD00007B
:101C600080B582B018480121FFF728FF00281DD059
:101C7000FFE715481421FFF721FF002805D0FFE7F3
:101C8000EB481421FFF706FF0FE010490191E848E7
:101C90000090FFF7A9FF00980121FFF7FBFE0198D4
:101CA0000078642100F068F9FFE7FFE7E0480821C9
:101CB000FFF704FF002805D0FFE7DD480821FFF704
:101CC000E9FEFFE702B080BD004000401B0100209C
:101CD00080B5C046C04680BD80B5C046C04680BD08
:101CE00080B5C046C04680BD80B5C046C04680BDF8
:101CF00080B5C046C04680BD80B500F0D9F95648D1
:101D0000006880BD80B500F0D3F9534800685149A0
:101D10000968C9B28909C84080BDC04681B0009039
:101D20006846C078000600280BD5FFE7009801211F
:101D3000C90788430090009A074908681043086063
:101D400005E0009A0349086810430860FFE701B006
:101D50007047C046302000403420004080B582B03B
:101D6000019001980078400700280BD5FFE700F0AC
:101D700093F938490868C0229043019AD268104309
:101D80000860FFE701980078800700280BD5FFE77F
:101D900000F082F92F49086838229043019A92682E
:101DA00010430860FFE7019800695249096803225F
:101DB000114088420BD3FFE700F066F94D490868EF
:101DC00003229043019A126910430860FFE70198CB
:101DD0000078C007002820D0FFE7019840680F284E
:101DE00008D1FFE700F058F9E449086820221043C1
:101DF000086011E000F050F9E349086807229043B9
:101E0000019A52681043086000F046F9DB490868FF
:101E1000202290430860FFE7FFE7019800693549F9
:101E200009680322114088420BD2FFE700F02CF929
:101E30003049086803229043019A126910430860F0
:101E4000FFE700F035F9CE4800683049086000200F
:101E500002B080BD002000402400002080B582B088
:101E6000019001980078C007002825D0FFE701986D
:101E70004079C00600280AD5FFE700F005F91D49A2
:101E8000086801221043022290430860FFE701988E
:101E90004068C049086000F0FFF8B84908680122AE
:101EA00010430860FFE7BB48006880B2C00B002801
:101EB00001D1FFE7F7E7FFE7019800784007002826
:101EC00015D5FFE701988068B049086000F0E4F894
:101ED000AA490868042210430860FFE7AB4800687D
:101EE00080B2C00B002801D1FFE7F7E7FFE7002031
:101EF00002B080BD5000024080B5C046C04680BDE3
:101F000080B5FFF7F9FE0149086080BD2000002080
:101F100080B5984802889D4908689D4B1A400C4B33
:101F20001840801808600B4802889A4908689A4B44
:101F30001A40094B18408018086008680F225202A6
:101F400090430522520280180860FFF7D9FF80BD38
:101F500000FCFFFFF20D100000FEFFFF80B52648D9
:101F6000C0780A2806DBFFE701F0EEF922490020DD
:101F7000C870FFE780BDC04682B001AA10706846F5
:101F800001700078002801D1FFE718E001991A4894
:101F9000427D82189175407D69460978491E8842C4
:101FA00005DAFFE71449487D401C487503E01249F3
:101FB00000204875FFE70F4900200870FFE702B0D6
:101FC0007047C04680B50B480178491C0170007805
:101FD00005280EDBFFE70848407D012805DBFFE709
:101FE00005481630FFF796F9FFE7034900204875CA
:101FF000FFE780BD280000202C00002080B584B0C1
:10200000039002A80170094A1021019111600399FF
:1020100002780748074BFFF7F1FD4B20800000F0E6
:1020200069FC01980449086004B080BD280E024094
:1020300000400040FFFFFF00240E024081B00090EE
:102040000098802108430F49086001B07047C046DE
:1020500081B0009000990868CA6810434968084335
:10206000044908600098806806490860002001B0B3
:102070007047C04604680040024908688022104347
:102080000860704700680040024907480860074838
:10209000086070472C00024002490348086003486A
:1020A000086070470C2000405A5A0000A5A50000A7
:1020B00080B584B02F48008803A908802E48008886
:1020C00002A908802D4800688006002804D5FFE793
:1020D0002B492C480860FFE72B480068072108407F
:1020E000022814D1FFE703A8008828490968284A74
:1020F0001140884205D1FFE721490120C003086053
:1021000004E01F494B2040020860FFE7FFE71E483C
:1021100000684007002821D1FFE702A800881D4978
:1021200009681D4A1140884204D1FFE714491C4840
:10213000086003E0124919480860FFE71048019061
:102140000068144909680F2252021140CA09154952
:102150008958FEF738F901990860FFE708490868CF
:10216000094A126838231A40D208D040086004B0E7
:1021700080BDC046F40D1000F00D10000820004096
:10218000240000200024F40000200040182000401B
:10219000FF03000010200040FF010000006CDC0283
:1021A000800CA3028835000081B0014668460170AA
:1021B00000214056002809D4FFE7684601781F2017
:1021C00001400120884002490860FFE701B07047E4
:1021D00080E200E081B0014668460170002140566F
:1021E00000280DD4FFE7684601781F200140012038
:1021F000884004490860BFF34F8FBFF36F8FFFE73C
:1022000001B0704780E100E081B00146684601708E
:1022100000214056002809D4FFE7684601781F20B6
:1022200001400120884002490860FFE701B0704783
:1022300000E100E070B582B0024601A80270009192
:1022400000214056002816D4FFE7002401A90857B2
:102250000322D3431840174A805809578C07E50ECC
:10226000FF24AC40A043009CA401E4B2AC40204356
:10227000194088501AE001A908780F242040083836
:102280000322D34318400A4A8058002549578D0736
:10229000EE0EFF25B540A843009DAD01EDB2B5405F
:1022A00028432140083919408850FFE702B070BD2B
:1022B0001CED00E000E400E080B58CB00BA900202C
:1022C0000870EC480078012805D1FFE7EA480221B0
:1022D00000F094FBCBE10BA900200870F248B62176
:1022E000405C0121084001280EDBFFE70B98401CF1
:1022F000C0B200210A9100F0BDFE0A990B98C01DE2
:10230000C0B200F0B7FE23E00BA80178E648401801
:10231000AF21405C01280DDBFFE70B98401CC0B2E9
:10232000012100F0A7FE0B98C01DC0B2002100F0F3
:10233000A1FE0CE00B98401CC0B2002100F09AFEF8
:102340000B98C01DC0B2012100F094FEFFE7FFE72B
:102350000BA901200870FA48B621405C0221084010
:1023600001280EDBFFE70B98401CC0B20021099149
:1023700000F080FE09990B98C01DC0B200F07AFEF3
:1023800023E00BA80178FE484018AF21405C0128EB
:102390000DDBFFE70B98401CC0B2012100F06AFE84
:1023A0000B98C01DC0B2002100F064FE0CE00B9839
:1023B000401CC0B2002100F05DFE0B98C01DC0B2F1
:1023C000012100F057FEFFE7FFE70BA9022008708C
:1023D000EB48B621405C0421084001280EDBFFE7F2
:1023E0000B98401CC0B20021089100F043FE0899F0
:1023F0000B98C01DC0B200F03DFE23E00BA8017891
:10240000DF484018AF21405C01280DDBFFE70B9847
:10241000401CC0B2012100F02DFE0B98C01DC0B2BF
:10242000002100F027FE0CE00B98401CC0B20021F8
:1024300000F020FE0B98C01DC0B2012100F01AFE72
:10244000FFE7FFE70BA903200870CD48B621405CE9
:102450000821084001280EDBFFE70B98401CC0B2A2
:102460000021079100F006FE07990B98C01DC0B22D
:1024700000F000FE23E00BA80178C1484018AF210E
:10248000405C01280DDBFFE70B98401CC0B2012126
:1024900000F0F0FD0B98C01DC0B2002100F0EAFD75
:1024A0000CE00B98401CC0B2002100F0E3FD0B983B
:1024B000C01DC0B2012100F0DDFDFFE7FFE70BA961
:1024C00004200870AE48B621405C10210840012865
:1024D0000EDBFFE70B98401CC0B20021069100F014
:1024E000C9FD06990B98C01DC0B200F0C3FD23E0E2
:1024F0000BA80178A2484018AF21405C01280DDBF1
:10250000FFE70B98401CC0B2012100F0B3FD0B980F
:10251000C01DC0B2002100F0ADFD0CE00B98401CC6
:10252000C0B2002100F0A6FD0B98C01DC0B2012171
:1025300000F0A0FDFFE7FFE70BA905200870904819
:10254000B621405C2021084001280EDBFFE70B98F4
:10255000401CC0B20021059100F08CFD05990B983C
:10256000C01DC0B200F086FD23E00BA801788448AE
:102570004018AF21405C01280DDBFFE70B98401CA1
:10258000C0B2012100F076FD0B98C01DC0B2002141
:1025900000F070FD0CE00B98401CC0B2002100F070
:1025A00069FD0B98C01DC0B2012100F063FDFFE77B
:1025B000FFE7EB48407803282FD1FFE70BA80390F3
:1025C0000021049101700B98401CC0B200F052FD34
:1025D00004990B98C01DC0B200F04CFD039A0499F9
:1025E000042010700B98401CC0B200F043FD049909
:1025F0000B98C01DC0B200F03DFD039A0499032062
:1026000010700B98401CC0B200F034FD04990B9878
:10261000C01DC0B200F02EFDFFE7D148407802286F
:1026200020D1FFE70BA801900021029101700B98C7
:10263000401CC0B200F01EFD02990B98C01DC0B234
:1026400000F018FD019A0299032010700B98401CAD
:10265000C0B200F00FFD02990B98C01DC0B200F08F
:1026600009FDFFE70448022100F0C8F9FFE70CB0BC
:1026700080BDC046E40000200001002081B0B848C1
:10268000017D0906C27C12048918827C1202891815
:10269000427C891800917B21415C0120884000998F
:1026A000084001B07047C0462C00002080B50720CC
:1026B000642100F0C9FC80BD80B520480068002876
:1026C0003BD0FFE71D480168491E016000680028F3
:1026D00032D1FFE7A248AD21405C01280ED1FFE7CF
:1026E000142000F0B1FD00F02DF8002805D1FFE71F
:1026F0000720002100F0A8FCFFE71CE0FFF7BEFF69
:1027000000280CD1FFE700F01DF8002806D1FFE7F4
:102710009348017C072000F097FCFFE70AE000F0F7
:1027200011F8002805D1FFE70720002100F08CFCFC
:10273000FFE7FFE7FFE7FFE7FFE780BDE8000020D6
:102740002C00002081B08649AF20085CAF314A7868
:1027500010438A781043CA7810430A7910434979A4
:102760000843002804D1FFE769460020087003E011
:10277000694601200870FFE76846007801B070479D
:102780002C00002084B0039002A80170694600204C
:10279000087001A90870FFE701A8007802A909786C
:1027A00088420EDAFFE70098039901AA1278895C43
:1027B000401869460870FFE70198401C01A908709D
:1027C000EAE7009901200002401AC0B204B0704745
:1027D00080B582B00190304930480860304900200F
:1027E0000860304905200860FFE70198411E01910B
:1027F000002816D0FFE72A49002008602A48006810
:102800000B49FDF7E0FD014601200006401A00904B
:10281000FFE7234800680099884201D9FFE7F8E7FD
:10282000E3E72049086801229043086002B080BDB8
:10283000A086010080B582B0019017491748086052
:10284000174900200860174905200860FFE7019834
:10285000411E0191002817D0FFE7114900200860B0
:10286000114800687D21C900FDF7ADFD014601203A
:102870000006401A0090FFE7094800680099884266
:1028800001D9FFE7F8E7E2E706490868012290432B
:10289000086002B080BDC04614E000E0FFFFFF000A
:1028A00018E000E010E000E02000002083B002907B
:1028B000FFE70298411E0291002819D0FFE7282067
:1028C0000190FFE70198002811D0FFE71E2000903B
:1028D000FFE70098002805D0FFE7FFE70098401EBB
:1028E0000090F6E7FFE70198401E0190EAE7E0E775
:1028F00003B07047F0B585B00490FFE70498411E1F
:102900000491002821D0FFE703A902910020009044
:10291000087001270F7002260E7003250D70042425
:102920000C7005230B7006220A70072001900870B6
:10293000009902980170019802990F700E700D7045
:102940000C700B700A700870D8E705B0F0BD00007D
:1029500080B5FEF7ABFF89497A220220885480BDFA
:102960002C00002085B004900391029204980090FE
:1029700000200190FFE70198029988420AD2FFE700
:102980000098019A805C03998854FFE70198401CE5
:102990000190F0E705B0704780B584B003900291D4
:1029A0000192FFE70398FEF7F1FA002801D0FFE754
:1029B000F8E7FFE703980299019AFEF759FB002810
:1029C00001D0FFE7F6E704B080BD000080B582B01B
:1029D0000948FDF750FEFFE70748FDF743FE0028D2
:1029E00001D1FFE7F8E704480190FDF7EBFD0198FE
:1029F000FDF7F2FD02B080BD0024004080B588B034
:102A0000079006A801702F49022008600120FFF7F7
:102A100071FF04A900200870FFE704A8007806A948
:102A2000097888423DDAFFE7079804A90978405CF5
:102A300005A9087003A900200870FFE703A8007823
:102A4000072828DCFFE72149202008600120FFF744
:102A500051FF05A800780006002804D5FFE71D49AE
:102A60000820086003E01A4908200860FFE70120F9
:102A70000290FFF73FFF0298174A20211160FFF7ED
:102A800039FF0598400005A90870FFE70398401C2E
:102A900003A90870D2E7FFE70498401C04A9087056
:102AA000BBE701200090FFF725FF0098064A0221AE
:102AB00001911160FFF71EFF01980249086008B0FC
:102AC00080BDC046240C0240280C0240240D024068
:102AD000240E0240280E0240280D024080B588B026
:102AE000D24907911020039008700220029008211B
:102AF0000122059200F044F8059A20210191104628
:102B000000F03EF80299059A0020049000F038F891
:102B1000FDF73AFE0298049A402100F031F801993D
:102B20000298049A00F02CF80399049A104600F0D9
:102B300027F8049A03200690042100F021F8029857
:102B40000399059A00F01CF8FDF714FEFEF786FFC6
:102B500004980799AD228854FFF7FAFE059A069863
:102B60000799CA730874FFF7A1FDFEF707FF0799DD
:102B70000872FDF7F3FE08B080BDC0462C000020AF
:102B800080B588B007AB1870069105A802700021C7
:102B90000491039102910191069901910078012815
:102BA00005D1FFE70220029000200390FFE705A86F
:102BB0000078002805D1FFE701200290000503906E
:102BC000FFE705A80078032805D1FFE70120029060
:102BD00000200390FFE707A80078002808D1FFE74E
:102BE0001F48FFF79BF81F4801A9FEF7D1FA29E01B
:102BF00007A80078012808D1FFE71748FFF78EF8EB
:102C0000164801A9FEF7C4FA1BE007A800780228BD
:102C100008D1FFE70E48FFF781F80E4801A9FEF73B
:102C2000B7FA0DE007A80078032808D1FFE70648A7
:102C3000FFF774F8054801A9FEF7AAFAFFE7FFE7D6
:102C4000FFE7FFE708B080BD08000080000F0240EA
:102C500004000080000E024002000080000D0240CF
:102C600001000080000C024080B5A0B01FA9002028
:102C70000870FFF7ABFE1E901E983C2804D8FFE7B3
:102C80001FA9012008709DE01E991A9101201B9038
:102C900000221C92AA291D9001D31C981D901B98FC
:102CA0001A991D9A18923029199001D81C981990D8
:102CB00018981999084204D0FFE71FA9022008704C
:102CC0007FE01E9814908108012015900022169232
:102CD0005729179001D31698179015981499179A99
:102CE0001292E229139001D8169813901298139912
:102CF000084204D0FFE71FA90420087060E01E9975
:102D00000E91324A01200F900023109391421190AE
:102D100001D3109811900F980E99119A0C92672276
:102D2000920091420D9001D810980D900C980D9939
:102D3000084204D0FFE71FA9082008703FE01E9852
:102D4000089081080120099000220A92AD290B9079
:102D500001D30A980B90099808990B9A06921C4A7D
:102D60009142079001D80A9807900698079908425F
:102D700004D0FFE71FA9102008701FE01E980290E2
:102D8000010901200390002204923329059001D308
:102D90000498059003980299059A00920D4A914271
:102DA000019001D80498019000980199084204D03C
:102DB000FFE71FA920200870FFE7FFE7FFE7FFE715
:102DC000FFE7FFE71FA8007820B080BD16020000D3
:102DD0003A020000B602000080B58AB0024609A897
:102DE000027008AA117004AA0192002102911170C8
:102DF000007800F01DF8019A0299107005A8039060
:102E0000AA220270089A42708170EF497B22895C85
:102E1000C170049901710521FFF7B4FC01460398C4
:102E200041710621FFF7EAF80AB080BD2C000020AE
:102E300083B001A90870E4484178684601700078C1
:102E4000062804D1FFE7019802A9087082E06846CD
:102E50000078032824D1FFE701A80078401E40082D
:102E6000002804D1FFE702A90120087072E001A840
:102E70000078401F4008002804D1FFE702A9022083
:102E8000087067E001A80078C01E4008002804D13F
:102E9000FFE702A9032008705CE0FFE7FFE754E0CA
:102EA00068460078012804D1FFE702A901200870D4
:102EB00050E068460078042804D1FFE7019802A991
:102EC000087047E06846007802283BD1FFE7EF48EA
:102ED000007820281DD1FFE701A80178481E424252
:102EE0005041091F4A4251410843002804D0FFE7DE
:102EF00002A9012008702DE001A80078801E40087A
:102F0000002804D1FFE702A90220087022E0FFE7B1
:102F100017E001A80078401E4008002804D1FFE710
:102F200002A90120087015E001A80078C01E400821
:102F3000002804D1FFE702A9022008700AE0FFE799
:102F4000FFE7FFE7FFE7FFE7FFE7FFE7019802A9D9
:102F50000870FFE702A8007803B0704780B584B01E
:102F600003A9029100200870FEF78AFB02990870FD
:102F70000848007801280BDBFFE70648019000783D
:102F800003A9097800F008F8019900200870FFE70C
:102F900004B080BD0901002080B582B001AA107084
:102FA000684601700078012812D1FFE725480078B3
:102FB000C00700280BD1FFE701A800780021FFF728
:102FC0000BFF20490878012210430870FFE736E024
:102FD00068460078022817D1FFE71A480078C00633
:102FE000002810D4FFE700F0F1F86420FFF722FC7E
:102FF00001A800780321FFF7EFFE1249087810229C
:1030000010430870FFE719E068460078032807D1ED
:10301000FFE76420FFF70EFC0A49002008700CE06F
:1030200068460078042807D1FFE76420FFF702FC18
:10303000044900200870FFE7FFE7FFE7FFE702B061
:1030400080BDC0460A01002082B0024601A802707D
:103050006A4611700078072808DCFFE7009801A98C
:103060000978B04A8918AE22885400E0FFE702B020
:103070007047C04688B0024607A8027006AA1170C1
:10308000017802910120039000220492002905900A
:1030900001DC0498059003980299059A0092112981
:1030A000019001DB049801900098019908421ED01C
:1030B000FFE706A8007800280CD1FFE707A80078F2
:1030C000411E0C48435C0C48425C0C49885C9843A8
:1030D00088540BE007A80078411E0648435C064868
:1030E000425C0649885C18438854FFE7FFE708B054
:1030F0007047C046100000200000002000010020A2
:1031000080B582B000200190FFF7E8FCFFE7FEF7F2
:1031100025FF00F011F9FAE780B582B001A900207F
:10312000087026480178491C01700078002801DCED
:10313000FFE741E021490020087001A90870FFE77E
:1031400001A80078062837DCFFE701A802781C48B0
:10315000805C1C49895C884217DDFFE701A8027882
:103160001749885C401E8854F348AD21405C012813
:103170000AD1FFE712488079002804D1FFE7142024
:1031800000F062F8FFE7FFE710E001A802780C48C2
:10319000805C0C49895C884207DAFFE701A8027865
:1031A0000749885C401C8854FFE7FFE7FFE7019868
:1031B000401C01A90870C3E702B080BD21010020B6
:1031C0000B010020120100202C00002080B582B0ED
:1031D00001A8B1210170B2214170B3218170032196
:1031E000FEF70CFF0E49012008700C4914200870EE
:1031F00002B080BD0948007801280DDBFFE70748D1
:103200000178491E01700078002804D1FFE70449C5
:1032100000200870FFE7FFE77047C0461901002053
:103220001A01002080B584B001A8CA210170B6211E
:103230004170FF218170C170BB2101710521FEF732
:10324000DDFE04B080BD000081B069460870BA4957
:10325000AE220120885400980B49087001B07047D5
:103260000948007801280EDBFFE707480178491E6E
:1032700001700078002805D1FFE7AF49AE22002099
:103280008854FFE7FFE77047200100202C00002052
:1032900080B5A948AD21405C012801D0FFE73FE09F
:1032A000A548AE21405C012801D1FFE738E01E4966
:1032B0000878401C08701D48006804210840012857
:1032C00005D1FFE71A490878401C0870FFE7164847
:1032D0000078102824DBFFE7134900200870144809
:1032E00000780E280EDBFFE712480078002805D191
:1032F000FFE7FFF797FFFFF7D9F9FFE70D49012037
:10330000087009E00B480078012801D1FFE7FFE7CA
:10331000084900200870FFE7054900200870FFE712
:1033200080BDC0462C000020EE0000201C0F024093
:10333000EC000020ED00002080B502488068FEF718
:103340007DFE80BDF000002080B55B4800683E49EE
:10335000884206D3FFE700F079F85749002008605B
:10336000FFE75548406800280AD0FFE7FFF7F6FD61
:10337000FEF728FEFFF78CFF4F4900204860FFE76B
:103380004D4880680A2808D3FFE7FFF7C5FEFEF71F
:1033900093FF494900208860FFE74748C068C0089C
:1033A0007D2806D3FFE7FFF787F943490020C8606F
:1033B000FFE741480069322806D3FFE7FDF724FB09
:1033C0003D4900200861FFE73B4840690A2806D3D1
:1033D000FFE7FDF7E9FC384900204861FFE7364880
:1033E000806964280AD3FFE7FFF73AFFFFF702FF7F
:1033F00000F08CF8304900208861FFE72E48C06952
:103400001149884206D3FFE700F020F82A4900203E
:10341000C861FFE72848006A0B49884206D3FFE7E6
:1034200000F014F8244900200862FFE72248406AAF
:103430000549884206D3FFE700F008F81E4900203E
:103440004862FFE780BDC04650C3000070470000DF
:1034500082B0019017480168491C01600068019919
:10346000884224D3FFE7144900910868401C086093
:103470004868401C48608868401C8860C868401CD8
:10348000C8600869401C08614869401C4861886937
:10349000401C8861C869401CC861086A401C0862F9
:1034A000486A401C4862034900200860FFE702B0F8
:1034B0007047C0464C0100202401002080B5FFF772
:1034C000DDF8002805D1FFE71B49B622002088540B
:1034D0001BE01948C07B002804D1FFE715493220C2
:1034E000086011E01448C07BC92805DBFFE71249DA
:1034F000B6223F20885406E00F48C17B092048438C
:103500000C490860FFE7FFE7FFE780BD0948006856
:1035100000280ED0FFE707480168491E01600068D7
:10352000002805D1FFE70449B6223F208854FFE771
:10353000FFE77047500100202C0000202021020CE2
:1035400001D010211046020A01D0104608390209A4
:1035500001D01046091F820801D01046891E42087A
:1035600001D0881E7047081A704702E008C8121F71
:1035700008C1002AFAD170477047002001E001C15C
:10358000121F002AFBD17047020000000400000057
:1035900006000000080000000A0000000C00000007
:1035A0000E0000001000000001000000D0350000F7
:1035B00000000020280000006A350000F8350000F7
:1035C00028000020300500007A35000000000000CF
:1035D00001010101000001010101000000000000E3
:1035E00010204080010201020408040810204080DD
:0835F00000093D0000093D0047
:04000005000000C136
:00000001FF
