:020000040000FA
:1000000060060020D5000000EF000000C1090000DC
:1000100000000000000000000000000000000000E0
:10002000000000000000000000000000F3000000DD
:100030000000000000000000F5000000E90E0000D4
:10004000930C00009B0C0000A30C0000AB0C000004
:10005000F90000001B070000F9000000F900000093
:10006000F7090000010A00007D0D0000F900000002
:10007000E3090000F9000000F9000000AD090000EC
:10008000F9000000F9000000F9000000F90000008C
:10009000F9000000F9000000EB090000F900000081
:1000A000AF060000F9000000F9000000F9000000B0
:1000B0008B0C0000F9000000E10800005908000066
:1000C0000348854600F082FA0048004741060000D8
:1000D0006006002009480A4A002100A1814200D997
:1000E0000244084802600848804708480047FEE785
:1000F000FEE7FEE7FEE7FEE7FEE700000000002067
:100100000000000008ED00E0F10E0000C10000005A
:1001100010B5044605E00B780370401C002B00D09E
:10012000491C521EF7D2204610BD421C0178401CCB
:100130000029FBD1801A7047F8B502464A40D40F17
:1001400042004B0052085B089A4202D2024608461F
:1001500011464A0023D0C30D4A00DDB2120EAD1A7B
:10016000202D35DA49020126490AF6058A19002CA4
:1001700000D0524220214F1B1146B9402A4110188D
:10018000C20D9A4221D0002C17D0012D08DCDA05CF
:10019000801AD20F8019D207DBB200F07FF9F8BDC8
:1001A000DA05801A012340001B06C01880185A4245
:1001B0008018CA0F1043490007E04908C2071143DD
:1001C000DA05801A80194008801800F05FF9F8BD40
:1001D00061000122511A001BF7E70122D2075140AA
:1001E000AAE70122D2075040A6E770B502464A406E
:1001F000D50F40004A00ED0740085208002814D0EF
:10020000002A12D0C40DD30D41020120C0055202B4
:10021000490A520AE41A091812187D34914201D38E
:10022000641C00E04900002C01DA002070BD0023AE
:10023000914201D3891A0343400849000028F7D1AD
:1002400000290AD0914202D10121C90705E091425B
:1002500001D2012101E00121C943E005C018401984
:1002600000F014F970BD0000F0B51FB488B00B9910
:100270000998002448400999C00F4900490809918C
:10028000C0070B990090490049080B9109990898FB
:10029000A64608431CD00B990A98084318D0099821
:1002A00001244000420D4800410D09982405000337
:1002B000000B204309900B980003000B20430B9088
:1002C00050181C494018002201901446104605E0C1
:1002D000002001460DB0F0BD032801DA034600E01E
:1002E00003239C46C11A0AAE0AE05F0008ADED5B2D
:1002F0004F00F75B7D430027AA187C41491C5B1E19
:100300006145F2DD410004AB5A522104120C0A434C
:10031000240C401C0828DFDB0198029000997046ED
:1003200001910090059B049A0799069800F0FCF84B
:10033000D0E700000DFCFFFF10B5002904DB0C46E0
:100340000121C9074042A141002B04DB1C460123C7
:10035000DB075242A341101A8B4101D2012010BD8C
:10036000002010BD10B5002904DB0C460121C9078F
:100370004042A141002B04DB1C460123DB07524213
:10038000A341801A994101D2012010BD002010BD67
:1003900010B500229623114600F080F810BD000031
:1003A0000EB505490291002100910A460B460191C4
:1003B00000F0BAF803B000BD33040000C20F4100E2
:1003C00040020123400ADB05D207090EC0187F292D
:1003D00001DA00207047962903DC9623591AC84099
:1003E00001E096398840002AF4D04042704770B549
:1003F0000446002903D000202022012310E0002819
:1004000001D00020C043C046C0460DE02546D5407F
:100410008D4205D30D469540641B1D4695404019FD
:100420001546521E002DF1DC214670BDF0B51FB4FB
:100430000646002082B005464024019100901BE052
:10044000019922460F46304600F0E8F8049A059BD1
:10045000801A994110D310461946224600F0CEF872
:10046000361A8F410197224601200021009F00F09B
:10047000C5F838184D4100902046641E0028DFDC86
:10048000019B00982946324607B0F0BD002904DAE6
:10049000401C490001D140084000704770B400245E
:1004A000050C05D11024000402D1002921D011240B
:1004B000050E01D100020834050F01D10001241DF1
:1004C000850F01D18000A41C002801DB4000641CC2
:1004D000002908D020252E1B0D46F540A14000D054
:1004E00001212943084301061B1B000ADB1D02D51D
:1004F000002070BC7047DB05181880180029F8DA56
:10050000401C4900F5D170BC40084000704710B550
:10051000002B08DA0024401C614192185B411A4309
:1005200001D14008400010BDF0B51FB482B00546AF
:100530000C0003D0084601F0A7FA02E001F0A4FA8B
:100540002030024600902146284600F057F8049BD0
:10055000059A04460F4618431143084314D0184621
:1005600010431BD0009840210A1A1846059900F044
:1005700055F805460E46009A0599049800F03EF895
:10058000084305D0012004E02046394607B0F0BDFD
:100590000020C11705430E432C43374300990E98A2
:1005A0006305401A7905E40A00220C43FD0A0A306B
:1005B00002D500200146E9E70105101969410C9CAC
:1005C0000D9D00196941FFF7A2FFDFE71CB509483F
:1005D00000900948019005460126009C05E0E3686B
:1005E00007CC33430C3C98471034AC42F7D3FFF7A9
:1005F0006BFD0000781F0000981F000010B5202A36
:1006000004DB0146203A9140002010BD9140202398
:100610009C1A0346E3401943904010BD10B5202AB0
:1006200004DB0846203AD040002110BD0B46D340E1
:10063000D0402024A21A91400843194610BD000062
:1006400010B50F4948880F4A02400F4883680F4C85
:100650001C40A218826009880D4A0A4001680D4BAF
:100660000B40991801600F21490202688A43026019
:1006700000F0A2FB0849086001F0E8F9002010BD75
:10068000F20D1000FF0300001020004000FCFFFFEF
:10069000FF01000000FEFFFF04000020B8214258C7
:1006A00001239A4342507047A0214058704780B5BB
:1006B000C046C04680BD0000B0B500291DD04268CC
:1006C0000F4B13400A681A438B6813434C681C4352
:1006D0000122144344600F23DB4384681C40CD682F
:1006E00025438560BC2405591D40096929430151F2
:1006F000104600F035FF0020B0BD0420B0BDC0465C
:10070000E2C9FFFFB0214158012008407047C021D5
:100710004258012313434350704780B5C046C0463A
:1007200080BD0000B0B52D4C0121204600F08EF8B0
:10073000012851D12A490868401C086029480268EC
:10074000012A0AD10A684368D21AC3689A4204D3BC
:100750000268022A01D002220260426A012A0AD1FA
:100760000A68836AD21A036B9A4204D3426A022A45
:1007700001D002224262826C012A0AD10A68C36C4B
:10078000D21A436D9A4204D3826C022A01D002220B
:100790008264C26E012A0AD10A68036FD21A836F7B
:1007A0009A4204D3C26E022A01D00222C26690226B
:1007B0008358012B0CD19C23C358096894254559B3
:1007C000491B994204D38158022901D0022181504A
:1007D0000121204600F008F8B0BDC046007400407A
:1007E0005C040020A0020020C2698A43C2617047F5
:1007F000016901220A430261704742690A4342616A
:1008000070470000F0B582B0002918D002690D4B86
:100810001340F4C900970F6801971A4322432A43F3
:100820003243009B1A43019B1A4302610268064B44
:1008300013408988C9180160002002B0F0BD04206F
:1008400002B0F0BD01F0FFFF0000FFFF806908402B
:10085000411A48424841704780B5C046C04680BDF5
:10086000B0B500280BD41F23034001249C40184B33
:100870001C60032304469C43164BE31803E00C233F
:100880000340124C1B198407E40E8907090EA1408E
:10089000FF25A5401C68AC430C431C60012A08D10D
:1008A000002812D41F210840012181400B4801601B
:1008B000B0BD002809D41F2108400121814006480D
:1008C0000160BFF34F8FBFF36F8FB0BD14ED00E039
:1008D00080E200E000E400E080E100E000E100E010
:1008E00080B5C046C04680BD10B518C90F2214405F
:1008F0000839042C02D104681C4301E004689C43BD
:1009000004604B681C461440012C04D10B684468F9
:100910001C4344604B681A40022A04D10A684368A9
:10092000934343604B680A681B061B0F03D0836820
:10093000134383600EE08368934383600A68012356
:100940001B058C689C4202D18369134301E08369D3
:10095000934383618A79120727D00A688B7BDB0770
:1009600002D1036C934301E0036C134303640A68F0
:100970008B7B9B0702D4436C934301E0436C13438E
:1009800043640A688B7B5B0702D4836B934301E06B
:10099000836B134383630A68897B090702D4C16BA5
:1009A000914301E0C16B1143C16310BD80B5C046E6
:1009B000C046FFF7B7FEC046C046C046C04680BD31
:1009C00081B0002000900098002808D100980028ED
:1009D00005D10098002802D100980028F3D001B07A
:1009E000704780B5C046C04680BD80B5C046C04691
:1009F000C046C04680BD80B5C046C04680BD000030
:100A000070B5194C0121204600F03CF8002829D08F
:100A100001252046294600F035F8002822D014216F
:100A2000204600F02FF8002808D01421204600F0BE
:100A300021F828020D4900220A5270BD2D020B4EEA
:100A4000705BFF280AD83118204600F08BF8705BE5
:100A5000401C705300F0FAFA054908600121204655
:100A600000F008F870BDC04600400040540300206C
:100A70007802002042698A434261704742680A4313
:100A8000426070470069084070470000F0B583B0CD
:100A900000295BD0044600200090606088684A68A6
:100AA000024308681043CA68024308691043CA69D0
:100AB0000243626048690E46FFF76AFC0546B0696A
:100AC000C000FFF765FC01462846FFF78EFB3F217B
:100AD0000906FFF731FBFFF771FCA0617069A1699E
:100AE000C9000190FFF783FCFFF75AFC054602910D
:100AF000B069FFF755FC06460F46164A164BFFF73E
:100B0000B3FB2A46029BFFF72DFC01460620002975
:100B10001AD1124A124B029030463946FFF7A4FB15
:100B200005460E46A069C1000198FFF760FCFFF77B
:100B300037FC02460B4628463146FFF7FDFB0146CF
:100B40000298002900D1009803B0F0BD042003B042
:100B5000F0BDC0465C8FC2F5285CEF3F52B81E85E1
:100B6000EB51F03F006808700020704710B5002A74
:100B70003CD00323134036D00469240708D4046909
:100B8000240705D40469240702D404692407F3D593
:100B90000C780460012B02D1531E491C24E0046927
:100BA000240708D40469240705D40469240702D45F
:100BB00004692407F3D54C780460022B02D1931EFC
:100BC000891C11E003691B0708D403691B0705D4BE
:100BD00003691B0702D403691B07F3D58B780360F5
:100BE000D31EC91C00E01346042A17D201698907E5
:100BF00008D40169890705D40169890702D401690C
:100C00008907F3D54169022291434161002010BD5B
:100C1000CA7802601B1F091D002BE7D0026912076A
:100C200008D40269120705D40269120702D40269C6
:100C30001207F3D50A7802600269120708D4026924
:100C4000120705D40269120702D402691207F3D50C
:100C50004A7802600269120708D40269120705D4B3
:100C60000269120702D402691207F3D58A7802607A
:100C700002691207CCD402691207C9D402691207AB
:100C8000C6D402691207F3D5C2E780B5C046C04694
:100C900080BD80B5C046C04680BD80B5C046C04658
:100CA00080BD80B5C046C04680BD80B5C046C04648
:100CB00080BD000070B50A462C490B78532B29D013
:100CC00001240C6100234B61294D8D61294ECE61B9
:100CD00064020C628B624B62CB620D63264C4C63E8
:100CE0008B630B64CB634B6453240C7045244C70B2
:100CF00047258D70CD700C7152244C7120258D715B
:100D0000CC7154240C724C728B72CB720B734B737C
:100D10008B73CB7318234343C818EFF3108301215F
:100D200081F31088056A416A4C1CAC4200D1002452
:100D3000C56A1830022D0BD10569AC4208D105698E
:100D4000AC4205D10569AC4202D10569AC42F3D091
:100D50000569AC4203D1002083F3108870BD45685B
:100D60006A54C460012083F3108870BD48000020DD
:100D70006C1F0000780000207800002080B5C0467D
:100D8000C04680BD10B50949094A0A60094A0A608F
:100D9000002801DA032200E00722D243535801243D
:100DA000E407A0431843505010BDC0460C2000403B
:100DB0005A5A0000A5A50000B0B53D4881880088BA
:100DC0003C4CA268920602D53B4A3C4B1360226819
:100DD00007231340022B0BD1A269554B13408B42C2
:100DE00002D04B21490201E00121C903324A1160BE
:100DF0002168490702D03048006812E021694F4A53
:100E00000A40824201D02F4800E02D482A4D286038
:100E10002169C9093C220A402B498958FFF7E7FAA2
:100E2000286021688906490FC84023490860B0BD81
:100E3000B0B51F48818800881E4CA268920602D572
:100E40001D4A1E4B1360226807231340022B0BD14F
:100E5000A269374B13408B4202D04B21490201E07B
:100E60000121C903144A11602168490702D01248C0
:100E7000006812E02169314A0A40824201D01148DB
:100E800000E00F480C4D28602169C9093C220A4046
:100E90000D498958FFF7ABFA286021688906490F88
:100EA000C8400549086021680906890FC840B0BDDF
:100EB000F00D100000200040080000200024F40085
:100EC000800CA302006CDC02481F000005490028CA
:100ED00000DA091D0A680123DB0798431043086004
:100EE0007047C0463020004080B5C046C04680BD37
:100EF00010B50E4948880E4A02400E4883680E4CD1
:100F00001C40A218826009880C4A0A4001680C4BF8
:100F10000B40991801600F21490202688A43026060
:100F2000FFF74AFF0749086010BDC046F20D1000E8
:100F3000FF0300001020004000FCFFFFFF01000045
:100F400000FEFFFF04000020F0B581B00022002861
:100F50002DD000292BD003220B4613404C1E032C0E
:100F600002D20024224610E00D4695430024064696
:100F700022463788D2197788D219B788D219F788CC
:100F8000D2190836241DA542F3D1002B0BD06400E2
:100F9000055B5219012B06D0001944881219022B47
:100FA00001D0808812181046FFF721FA024690B24D
:100FB00001B0F0BDF0B581B003460420002928D06F
:100FC000002A26D0032610463040551E0024032D4B
:100FD000009425460ED3B24300255E5D4E554E1952
:100FE0005F197C787470BC78B470FC78F4702D1D37
:100FF000AA42F2D100280BD05A5D4A55012807D0E9
:101000006A1C9C5C8C54022802D0A81C1A5C0A54EE
:10101000009801B0F0BD0000B0B50B4604460A4888
:101020000621018102710125C57083704470AA25D3
:1010300005700025C580E3189A1855239A1A427145
:1010400000F076FAB0BDC0469602002089480068DC
:101050007047C046B0B588B00025069505950124B7
:101060002002FFF78FFE1048FFF730FF0F48079070
:10107000049530200390029501950D4D01A9284655
:10108000FFF7C0FB28462146FFF7AEFB2846214666
:10109000FFF7B3FB0F2003212246FFF7E1FB2846B1
:1010A000FFF7A6FB08B0B0BD004000809F0F000016
:1010B00000740040B0B56E4C206802280ED1216942
:1010C000002901D060698847207A012804D1694845
:1010D00000686060012000E000202060606A022853
:1010E0000FD1616B002901D0A06B88472C20205CB8
:1010F000012804D15F480068A062012000E00020C0
:101100006062A06C02280FD1A16D002901D0E06DB2
:1011100088475020205C012804D156480068E064CC
:10112000012000E00020A064E06E022810D1E16FF1
:10113000002902D08020205888477420205C012894
:1011400004D14C4800682067012000E00020E066E0
:1011500090256059022812D1A0202158002902D0E0
:10116000A420205888479820205C012805D14148B8
:10117000006894216050012000E000206051B0BD63
:10118000F0B58DB0012400286ED000296CD0129EDD
:10119000002E0FD0009030461D460C461746FEF735
:1011A000C4FF3A4621462B4605460098092D01D931
:1011B000042459E001962E4E34680025002C2F4659
:1011C00015D0746A002C0BD0B46C002C0AD0F46ECD
:1011D000002C09D090243459002C07D0022443E07D
:1011E000012704E0022702E0032700E0042701248E
:1011F0000C94204C24680B9424247C430C9F37517E
:101200000AAF3A7036190B9A72600A9A327209AABA
:101210009478F4725278B272099A727208900898AF
:10122000F06007910798306103A80581069306983E
:1012300070610598308404950498F06103950398D3
:10124000B06102987084304618300199002909D0A5
:101250000A78002A06D00922FEF75AFF212000242E
:10126000345401E00024047020460DB0F0BDC046A7
:10127000A00200205C04002080B500F055F880BD7D
:10128000F0B581B00F258A0829400301C918C9B2F9
:101290000C2313408006800F18180002401800909D
:1012A000104E0EE0082101602027776001242046BF
:1012B00000F056F93760204600F052F96D1E681CA8
:1012C00006D20098E840C007A348EBD0001DE9E72C
:1012D000054C02256560012000F042F9256001B04F
:1012E000F0BDC046240D0240240C024080B500F041
:1012F0005DF880BD10B53A4C2046FFF708FA20464D
:10130000FFF700FA0028FAD02046FFF7C7F9204679
:10131000FFF7CAF97D21890048430249FFF767F8C2
:1013200010BDC046FF030000B0B584B0002003909C
:101330000290114C2046FFF7C9FD601CFFF7C6FD67
:10134000E01CFFF7C3FD0225009501950B486C4694
:101350002146FFF7C9FA2020009001953148214627
:10136000FFF7C2FA0820009001950F482146FFF7C9
:10137000BBFA04B0B0BDC04601000080000C0240C2
:1013800080B584B00020039002900648FFF79EFDD0
:10139000102000900220019003486946FFF7A4FA4C
:1013A00004B080BD04000080000E0240B0B586B0DD
:1013B0000024059401252804FFF788FD08200490E7
:1013C0006802039002941C200190054C01A920465C
:1013D000FFF772F92046FFF761F906B0B0BDC046CD
:1013E0000024004070B584B0002403940C48FFF73B
:1013F0006DFD02940426009602200190094C6D4672
:1014000020462946FFF770FA032000040390009657
:101410000548019020462946FFF766FA04B070BDE2
:1014200002000080000D024001000F00F0B585B001
:10143000002004901448FFF749FD144C204608385A
:101440002021016001910220029001273E050396B0
:10145000303C01AD20462946FFF746FA4020019076
:10146000029720462946FFF73FFA0F200105074B58
:101470001A688A4391191960000619688143380671
:101480000818186005B0F0BD08000080300F024059
:101490000F4908607047C046B0B5012004020A4DEC
:1014A000285B00280ED0FFF7D1FD08490968401AD3
:1014B0000A2807D306480168002901D00248884756
:1014C00000202853B0BDC0465403002078020020FD
:1014D00058040020B0B588B00446FFF751FFFFF76D
:1014E000A5FF002507950820FFF7F0FC0195029560
:1014F0000520400204901020039040200090FFF748
:1015000097FC06940590154C69462046FFF7BEFAF5
:1015100037212046FFF7AEFA012520462946FFF77E
:10152000ADFA092029462A46FFF79AF908B0B0BD5E
:10153000B0B500280FD00A4600290CD00146064C51
:10154000102565607D2083000448FFF70FFB0A200B
:1015500000F0C2F82560B0BD240E024000400040FB
:10156000F0B583B0BD4E321F012102910F06791EE6
:1015700011600025356031460839052201910A6065
:10158000002838D003210140044632D00C46009098
:101590003560B34800684F49FEF729FF381A3168B3
:1015A000814208D93168814205D93168814202D926
:1015B00031688142F3D8012C04D10098441E0428DC
:1015C0003AD218E03560A64800684249FEF70FFF9E
:1015D000381A3168814208D93168814205D93168A9
:1015E000814202D931688142F3D8022C0AD1009895
:1015F000841E042820D2019A106802998843106042
:1016000003B0F0BD3560964800683249FEF7EFFE42
:10161000381A3168814208D93168814205D9316868
:10162000814202D931688142F3D80098C41E04284F
:1016300002D2E0E7241FDED03560894800682549E2
:10164000FEF7D5FE381A3168814208D931688142E7
:1016500005D93168814202D931688142F3D83560B9
:101660007F4800681B49FEF7C2FE381A3168814284
:1016700008D93168814205D93168814202D931687F
:101680008142F3D83560764800681249FEF7AFFE14
:10169000381A3168814208D93168814205D93168E8
:1016A000814202D931688142F3D835606C480068C4
:1016B0000849FEF79CFE381A31688142BAD9316870
:1016C0008142B7D931688142B4D931688142F3D8B7
:1016D000B0E7C046A0860100F0B585B004465F4F74
:1016E000381F0121039109060491491E016000255C
:1016F0003D6039460839052002910860002C39D038
:1017000003202040264633D006463D607D20C100A0
:10171000534800680191FEF76AFE0499081A396877
:10172000814208D93968814205D93968814202D994
:1017300039688142F3D8012E03D1661E042C3AD2B7
:1017400018E03D60464800680199FEF750FE049994
:10175000081A3968814208D93968814205D939683F
:10176000814202D939688142F3D8022E09D1A61EDE
:10177000042C20D2029A106803998843106005B0A7
:10178000F0BD3D60364800680199FEF730FE0499CF
:10179000081A3968814208D93968814205D93968FF
:1017A000814202D939688142F3D8E61E042C02D264
:1017B000E0E7361FDED03D607D20C4002848006889
:1017C0002146FEF714FE0499081A3968814208D9A7
:1017D0003968814205D93968814202D93968814224
:1017E000F3D83D601E4800682146FEF700FE0499CC
:1017F000081A3968814208D93968814205D939689F
:10180000814202D939688142F3D83D6014480068AA
:101810002146FEF7ECFD0499081A3968814208D97F
:101820003968814205D93968814202D939688142D3
:10183000F3D83D600A4800682146FEF7D8FD0499B8
:10184000081A39688142B4D939688142B1D93968F6
:101850008142AED939688142F3D8AAE718E000E0A6
:101860000400002080B5012290030349FFF7A2FB8A
:1018700080BDC046004870479402002080B500F04B
:1018800001F880BD10B582B0FFF7ACFDFFF72EFD6B
:10189000FFF7F2FC002420462146FFF7F1FC0A483E
:1018A000FFF7F6FD09A000900B49012002462346F0
:1018B000FFF766FCFFF7D6FFFFF7DCFF017807A014
:1018C00000F0D2F802B010BDE91800007265616442
:1018D0005F616463000000006D1900006C6F61645B
:1018E0003A253032580A000080B50178AA2908D17B
:1018F00001210902405AFF210231884205D30BA081
:1019000000E002A013A100F0AFF880BD5B232573B7
:10191000235D202270616E656C206672616D6522A8
:10192000204552524F52210A000000005B232573CC
:10193000235D202270616E656C206672616D65208A
:10194000746F6F206C6F6E6722204552524F522188
:101950000A0000006465765F70616E656C5F70728E
:101960006F746F5F636865636B000000F0B583B0F0
:10197000FFF7C0FC029085B22D482B1800272D4C94
:10198000019304E026700A347F1C062F4ED0E088B5
:10199000854202D32089854203D9062BF3D2002643
:1019A000F0E7254A1078411C117040001018029A87
:1019B0008280C8B20A28E6D300201F490870081D9B
:1019C0000A21FFF7C1FA019BE1888842DBD3218914
:1019D0008842D8D820780028D5D160780126704078
:1019E0006070144BD87A411E8841400059780143F9
:1019F000587D421E904180000843D97F4A1E914184
:101A0000C90001432920185C421E9041000108438F
:101A10003321595C4A1E91414A0102433F21114042
:101A2000FAB20020FFF7F8FA019BABE703B0F0BD74
:101A300011FEFFFF0C0000207C02002010B50446C0
:101A4000C1B20020FFF736F9204610BDFFF702FBB8
:101A5000FFF714FF4B20C001FFF73CFDFFF72AFB07
:101A6000FFF71AFDFAE700000FB410B503A9044B05
:101A7000044A029800F02EF810BC08BC04B01847C5
:101A80003D1A0000000000202021020C01D010218E
:101A90001046020A01D010460839020901D010464A
:101AA000091F820801D01046891E420801D0881EF5
:101AB0007047081A704702E008C8121F08C1002AC0
:101AC000FAD170477047002001E001C1121F002ABF
:101AD000FBD17047FFB591B00F460546002606E0E2
:101AE00025280AD0149A139990476D1C761C2878E3
:101AF0000028F5D1304615B0F0BD00240094012136
:101B0000F34A029400E004436D1C2B780846203B06
:101B100098401042F7D128782A280ED00221287840
:101B20000246303A092A15D8009A0A235A43303A15
:101B300080180C436D1C0090F1E701CF0090002845
:101B400005DA01204003044300984042009002203F
:101B500004436D1C28782E2815D10420044368788E
:101B60006D1C2A280AD101CF6D1C02900BE002994E
:101B70000A225143303940186D1C029028780146E2
:101B800030390929F3D928786C2810D006DC4C2884
:101B90001AD068280ED06A2817D104E0742813D010
:101BA0007A2812D110E00120400504430CE0012105
:101BB000090501E0032109050C436978814203D13D
:101BC0000120000524186D1C6D1C287803906E28D8
:101BD0001ED00CDC632831D004DC00288AD05828C1
:101BE00011D1B2E064287BD069280CD178E0732849
:101BF0002DD004DC6F2870D0702804D1A7E07528A0
:101C00006CD078286BD0149A13999047761C62E0B8
:101C10006002400F022807D003280AD00428386841
:101C20000AD006603F1D56E03868F1170660416033
:101C3000F8E738680680F5E70670F3E73878694614
:101C400008740020487404A80390012003E0386859
:101C500003900020C0433F1D61070FD5002101E024
:101C60000199491C029A0191914213DA8142F7DBF2
:101C7000019A0399895C0029F2D10BE0002101E06F
:101C80000199491C01918142FADB019A0399895C0F
:101C90000029F5D101990098139A401A0090214625
:101CA000149B00F03BF901998019461807E003984E
:101CB00003990078491C0391149A1399904701984D
:101CC000401E0190401CF2D12146149B139A0098AB
:101CD00000F014F986196D1C09E741E033E034E0A7
:101CE0000A200021049005916002410F022905D0CD
:101CF00001CFC2179446032905D007E0FF1DFF0856
:101D0000FF0003CF06E000B2C2179446042902D1B7
:101D100040B2C1178C4600226146944506DA0A4655
:101D20000021404291418C462D2102E0210504D53D
:101D30002B216A461176012103E0E10701D0202121
:101D4000F7E7019154E00A200BE0102009E0102091
:101D5000049000210420044308200591029003E030
:101D600008200021059104906002410F022905D04E
:101D700001CF00229446032906D006E0FF1DFF088C
:101D8000FF0003CF8C4603E080B2042900D1C0B22B
:101D90000021019121072BD50399702906D0049ABF
:101DA0001021059B4A401A4305D00EE040216A46A7
:101DB0001176012108E06146014306D030216A46D0
:101DC00011760399517602210191049A0821059B0D
:101DD0004A401A430CD16146014301D1610707D53E
:101DE00030216A461176012101910299491E029122
:101DF0000399582904D037A103910FA90F910DE041
:101E000039A1F9E76146059B049AFEF70FFB039B96
:101E10008C469B5C0F9A521E0F92137061460143D1
:101E2000F0D10F9807A9081A20300390600704D555
:101E3000012000048443029801E0012002900399EC
:101E4000884201DD401A00E000204118029001980C
:101E500009180098401A0090E00306D42146149B0C
:101E6000139A009800F05AF886190020049008E0B0
:101E700006A9085C149A139990470498401C761C94
:101E8000049001998842F3DBE0030CD52146149BB2
:101E9000139A009800F042F8861904E0149A302052
:101EA00013999047761C0299481E02900029F5DC90
:101EB00008E00F980F990078491C0F91149A139914
:101EC0009047761C0399481E03900029F1DCFBE63D
:101ED0000928010030313233343536373839616200
:101EE00063646566000000003031323334353637C4
:101EF000383941424344454600000000F8B50446E5
:101F000000251E461746880404D405E039462020E3
:101F1000B0476D1C641EF9D52846F8BDFFB50446D0
:101F2000002581B01E46C80301D5302700E02027D8
:101F3000880404D505E038460399B0476D1C641E3B
:101F4000F9D5284605B0F0BD0200000004000000ED
:101F500006000000080000000A0000000C0000005D
:101F60000E00000010000000010000005465726DBA
:101F7000696E616C00000000981F000000000020E6
:101F800048000000B61A0000E01F000048000020D2
:101F900018060000C61A00000000000000093D00FD
:101FA00000093D00000000000000000005000000E6
:101FB00000000000320037000000000000008A002E
:101FC0008F00000000000000E400E90000000000B5
:101FD000000033014C010000000000006E0173019D
:04000005000000C136
:00000001FF
